:100000000C944B030C9473030C9473030C947303C0
:100010000C9473030C9473030C9473030C94730388
:100020000C9473030C9473030C9473030C94730378
:100030000C94CF230C9473030C94CB240C947C2548
:100040000C9473030C9473030C9473030C94730358
:100050000C9473030C9473030C9473030C94730348
:100060000C9473030C9473030C9459240C94332450
:100070000C9473030C9473030C9473030C94730328
:100080000C9473030C9473030C9473030C94730318
:100090000C9473030C94A5240C947F240C94730388
:1000A000207E0102000000000000000000000000AF
:1000B00000000000F0000000000000003F00000011
:1000C00000000000F0F00000000000003F3F0000D2
:1000D000000000000080F080F080000000043F0479
:1000E0003F040000F0F0F0F0000000003F3F3F3F11
:1000F00000000000F0F0F0F0F00000003F3F3F3F54
:100100003F000000F0F0F0F0F0F000003F3F3F3F14
:100110003F3F0000F0F0F0F0F0F0F0003F3F3F3FD5
:100120003F3F3F00000080601008000000000F30DB
:100130004080000000081060800000000080403017
:100140000F000000008000C0008000000008051FB4
:1001500005080000000000C0000000000002021FAF
:10016000020200000000000000000000000090708B
:100170000000000000000000000000000002020279
:1001800002020000000000000000000000002070DB
:10019000200000000000008060180000C0300C0348
:1001A00000000000C020101020C000000F10202010
:1001B000100F0000004020F0000000000020203F51
:1001C000202000006010101010E0000020302824D3
:1001D0002320000010101090503000001820212122
:1001E000211E00000000C020F00000000C0B0808D9
:1001F0003F080000F09090909010000019202020FF
:10020000201F0000C0201010100000001F2221211C
:10021000211E000010101010D030000000300C0320
:100220000000000060901010906000001C2221214E
:10023000221C0000E010101010E000001922222201
:10024000110F0000000080C0800000000000103985
:10025000100000000000808000000000000049390C
:10026000000000000000008040200000000205089F
:10027000102000008080808080800000040404043E
:1002800004040000F0E0C080000000007F3F1F0F6A
:10029000070200006010101090600000000000379E
:1002A00000000000C020905050E000000F102728F0
:1002B000282F0000C020101020C000003F020202C2
:1002C000023F0000F0101010A04000003F2121214B
:1002D000120C0000E0101010106000001F20202001
:1002E00020180000F010101020C000003F20202037
:1002F000100F0000F0101010101000003F212121FD
:1003000020200000F0101010101000003F0101012B
:1003100000000000E0101010106000001F202022DC
:10032000123E0000F000000000F000003F0101015B
:10033000013F0000001010F0101000000020203FCE
:100340002020000000000010F010000018202020E5
:100350001F000000F0008040201000003F01020458
:1003600008300000F0000000000000003F202020C6
:1003700020200000F060808060F000003F0001015C
:10038000003F0000F0C0000000F000003F0001024C
:100390000C3F0000E010101010E000001F20202093
:1003A000201F0000F010101010E000003F020202B9
:1003B00002010000E010101010E000001F242428AB
:1003C000709F0000F010101010E000003F020206C5
:1003D0000A310000E01010101060000018212122E6
:1003E000221C0000101010F0101010000000003F40
:1003F00000000000F000000000F000001F2020209E
:10040000201F0000F000000000F000000007383856
:100410000700000000F0000000F00000001F201C9A
:10042000201F000030C00000C0300000300C03036B
:100430000C30000000708000807000000000013E61
:10044000010000001010109050300000302C2221CC
:10045000202000000000F808080800000000FF80CD
:100460008080000018608000000000000000030C85
:1004700030C0000000080808F800000000808080FC
:10048000FF000000201008081020000000000000FD
:10049000000000000000000000000000808080805C
:1004A0008080000000000810200000000000000014
:1004B00000000000008080808000000019242424B7
:1004C000243F0000F0008080800000003F112020C9
:1004D000201F000000808080800000001F2020205E
:1004E000201100000080808000F000001F202020EC
:1004F000113F000000808080800000001F24242421
:10050000241700000000E0101020000001013F014E
:100510000100000000808080008000006798A8A88B
:10052000A7400000F0008080800000003F01000034
:10053000003F0000000080B0000000000020203FCD
:10054000202000000000000080B0000000608080DB
:10055000807F0000F0000000800000003F040609DA
:1005600010200000000010F0000000000020203FDC
:10057000202000000080800080000000003F001F5D
:10058000003F000080008080800000003F010000EC
:10059000003F000000808080800000001F2020209D
:1005A000201F00008000808080000000FF112020BC
:1005B000201F000000808080008000001F2020207D
:1005C00011FF000080008080800000003F010000DB
:1005D000000300000080808080000000112224249D
:1005E000281100008080F0808000000000001F20A3
:1005F0002010000080000000008000001F2020204C
:10060000103F0000008000000080000000030C305C
:100610000C0300000080000000800000001F201E6E
:10062000201F00008000000000800000310A040448
:100630000A31000080000000008000004F90909080
:10064000887F0000808080808080000020302C2205
:1006500021200000000000F0080800000000027DDA
:1006600080800000000000F800000000000000FF93
:1006700000000000000808F0000000000080807DFD
:100680000200000030081020403000000000000090
:1006900000000000982611241FBECFEFCDBFDFE37E
:1006A000DEBF18E2A0E0B8E2E1E2FFE702C0059099
:1006B0000D92A431B107D9F72DE2A4E1B8E201C04F
:1006C0001D92AD30B207E1F713E0CBE4D3E004C0F4
:1006D0002197FE010E94D738CA34D107C9F70E947A
:1006E000E82C0C94093D0C94000080E008952091C2
:1006F000B72C3091B82C2830310514F5F901EE0FE4
:10070000FF1FE750F34D80839183DC01A059BF4F59
:10071000F90153E0EE0FFF1F5A95E1F7E654F34D50
:1007200089589F4F4D91442329F0A817B90711F01C
:100730004193F8CF2F5F3F4F2093B72C3093B82CC5
:1007400008951F93CF93DF93CDB7DEB72597CDBF25
:10075000DEBF1C8221E02B8389839A83E091402AAB
:10076000F091412A11891D82A091402AB091412A1D
:10077000E091442AF091452A9E012F5F3F4F509609
:100780004C916FE080E49AE209958D818F5F8D83B3
:10079000811750F32596CDBFDEBFDF91CF911F911A
:1007A0000895E091882AF091892A309719F083EC16
:1007B0009AE209958091C42A823F09F4BAC090F563
:1007C000803C09F499C0B8F4803909F44FC040F472
:1007D000E0918C2AF0918D2A803809F44BC008955D
:1007E000803A09F484C0E091922AF091932A803BE8
:1007F00009F440C00895803E09F462C040F4E091DD
:10080000962AF091972A803D09F47AC00895803F96
:1008100009F47DC0E0919C2AF0919D2A813F09F462
:100820009BC008958A3FC1F1A8F4863F09F499C09E
:1008300040F4E091A02AF091A12A833F09F48CC0F2
:100840000895883F09F1E091A82AF091A92A893FEB
:10085000F9F008958C3F51F120F18E3F61F1E09164
:10086000B02AF091B12A8F3F99F00895E0918E2A35
:10087000F0918F2A309709F479C04091C62A60918F
:10088000C52A8091C32A0994E091A42AF091A52A4F
:10089000309709F46BC00994E091A62AF091A72A39
:1008A000F7CFE091AA2AF091AB2AF2CFE091AC2ADF
:1008B000F091AD2AEDCFE091AE2AF091AF2AE8CFCA
:1008C000E091982AF091992A309709F44FC06091ED
:1008D000C62A20E8629FB001112460787F7380915E
:1008E000C52A8F77682B70528091C32A0994E091B2
:1008F000902AF091912ABECFE091942AF091952A06
:100900003097A1F16091C52A8091C32A0994E091A2
:100910009A2AF0919B2A309749F16091C52A7091EB
:10092000C62A6138710510F060E870E087EC9AE241
:100930000994E0919E2AF0919F2A3097B9F0809116
:10094000C62A20E8829FC001112480789F732091DD
:10095000C52A2F77822B0994309741F08091C52AC0
:100960000994E091A22AF091A32A92CF0895CF93FF
:10097000DF93CDB7DEB72897CDBFDEBFDC01ED91A9
:10098000FC910190F081E02DBE016F5F7F4F0995D2
:1009900020917F2930918029A90183E0440F551FC0
:1009A0008A95E1F7FE013196DA01AA50B44D90E044
:1009B00080E0619161110CC060E201968730910581
:1009C00061F0FA01E80FF91FEB50F44D6083F5CFA9
:1009D0006D9301968630910561F7220F220F220F49
:1009E00081E0820F8093B52C295F2093B62C289646
:1009F000CDBFDEBFDF91CF91089520917F29309147
:100A00008029B90133E0660F771F3A95E1F7FB01C2
:100A1000E758FF4FE80FF91F41E050E08191DA01FC
:100A2000A60FB71FAB50B44D8C934F5F5F4F47304D
:100A30005105A1F7220F220F220F81E0820F809330
:100A4000B52C295F2093B62C08959B01DC011896E4
:100A5000ED91FC9141E067E10994FC0154894589DD
:100A6000252F30E0842F90E0821B930B541710F059
:100A7000CF96089501970895FC019289838998176C
:100A800061F0A389AE0FBF2FB11D59968C91938948
:100A90009F5F9F73938B90E008958FEF9FEF089572
:100AA000FC0192898389981731F08389E80FF11D41
:100AB000818D90E008958FEF9FEF0895FC0192895A
:100AC0002389892F90E0805C9F4F821B91098F734F
:100AD00099270895CF93DF93EC01E881F98106808F
:100AE000F781E02D0995EC85FD8586818F738683DE
:100AF000EC85FD8585818F7585838B898A8B198A25
:100B0000DF91CF910895CF93DF93FC01948985897C
:100B1000C485D585981306C08D818F7D8D83DF9127
:100B2000CF910895A589AE0FBF2FB11DA75ABF4F12
:100B30002C91858990E001968F739927858B80E4AD
:100B40008C83A485B58512962C93948985899813F6
:100B5000E6CFA485B58515968C9115978F7D159652
:100B60008C9387898823D9F2808D80931301178A0B
:100B7000D6CFDC011C96ED91FC910FB607FE03C0A9
:100B8000258125FD04C0248125FD0C94830508954D
:100B9000EF92FF920F931F93CF93DF93EC0181E0CD
:100BA000898B9C898D8998131CC0AC85BD85149652
:100BB0008C91149785FF15C012966C93AC85BD85FA
:100BC00080E414968C93EC85FD8585818F7D8583EB
:100BD00081E090E0DF91CF911F910F91FF90EF9016
:100BE00008958091110180FF08C080911301888FC2
:100BF0008E898093130181E08F8BF62E0C8910E093
:100C00000F5F1F4F0F731127E02E8D898E1104C0C7
:100C1000CE010E94B905F9CFEC89EC0FFD2FF11D33
:100C2000E75AFF4FF0820C8BEC85FD858581806251
:100C3000CECFCF93DF93FC0121892223C9F0EC01B1
:100C40008091110180FF08C080911301808F8689F7
:100C50008093130181E0878BEC85FD85858185FD7F
:100C600003C0848186FD04C0CE010E94B905F4CF83
:100C7000DF91CF910895CF93DF9390E0FC01EB5D7E
:100C8000F34420812F3F69F0FC01E55FF344E081EC
:100C900030E2E39FF0011124FC5F6130710521F423
:100CA0002183DF91CF9108958F509444EC01A88166
:100CB000AF3F69F0CF014096A80FB92FB11D9FB784
:100CC000F89422838C9188608C939FBFEACFB0E028
:100CD000A0E0F5CF282F30E0F901E952F444E0819B
:100CE000EE2309F1E13021F0F0F0E63098F00895BC
:100CF0004091010A2F503444F90120812C5F81E09A
:100D000090E001C0880F2A95EAF7809584238093AC
:100D1000010A089580E1E89FF0011124E05AF54F9F
:100D200081818F7E81830895FF920F931F93CF93CC
:100D3000DF93082F10E0F801EB5DF344F0809FEFA4
:100D4000F916A1F0EB018B3210F40E946A06F8014B
:100D5000E55FF344E08180E2E89FF0011124FC5F4D
:100D600080818F2179F0209739F4F682DF91CF913D
:100D70001F910F91FF900895229711F4F782F6CFFB
:100D8000F582F4CFD801AF50B4448C91309771F014
:100D90008F3F61F07096E80FF11D9FB7F894808146
:100DA000CD2B39F4877F80839FBFE0CFF0E0E0E078
:100DB000F4CF8860F8CF0F931F93CF938B32E8F472
:100DC000082F10E0F801EB5DF344C081CF3FA9F09C
:100DD0000E946A06F801E55FF344E08180E2E89F43
:100DE000F0011124FC5F8085C82381E090E009F4C4
:100DF00080E0CF911F910F91089580E090E0F9CFAE
:100E00008B3210F40C94940608958B3210F40C94E9
:100E10003B060895CF92DF92EF92FF920F931F93BC
:100E2000CF93DF93EC016A017B01022F898988232C
:100E300039F0E881F9810288F389E02DCE01099526
:100E400098898091E205892B8093E2051FB7F89479
:100E500060E070E281EA97E0A70196010E946036A7
:100E600069017A018FEFC81AD80AE80AF80AF694DD
:100E7000E794D794C794EC85FD8586818D7F868322
:100E8000EC85FD8586818683198AA09123110A2E1F
:100E9000000CBB0BA70196010E94583620E034E0FD
:100EA00040E050E00E942E36EC85FD85C20ED31E38
:100EB000E41EF51EC086D186EC85FD850783EC8592
:100EC000FD858681806C8683EC85FD8585818068C3
:100ED00085838E8562E070E00E9405078F8561E062
:100EE00070E00E9400078F8561E070E00E940507B6
:100EF0001FBFDF91CF911F910F91FF90EF90DF9077
:100F0000CF900895CF93DF938FB7F89420917B29EA
:100F100030917C2940917D2950917E29E0918A0A67
:100F20009091860A90FF06C02F5F3F4F4F4F5F4F53
:100F3000E0918A0A8FBFA0917929B0917A29C09156
:100F40007729D09178290E944D36EC9F9001ED9F32
:100F5000300D1124620F731F811D911DDF91CF9100
:100F600008958F929F92AF92BF92CF92DF92EF92AD
:100F7000FF924B015C010E9482076B017C01A8EE8D
:100F8000B3E0A50194010E944D36C60ED71EE81E9F
:100F9000F91EC616D706E806F90618F40E9482075D
:100FA000F8CF0E9482076C157D058E059F05C8F35A
:100FB000FF90EF90DF90CF90BF90AF909F908F9079
:100FC00008952FB7F89460917329709174298091D6
:100FD0007529909176292FBF08950C9400000895EB
:100FE000DF92EF92FF920F931F93CF93DF93F82E30
:100FF000E62ED42E09EF1CE2D0E0C0E08091B72CA1
:101000009091B82CC817D90784F4D8018D919D917F
:101010008D01DC01ED91FC910480F581E02D2D2DF9
:101020004E2D6F2D09952196E9CFDF91CF911F911C
:101030000F91FF90EF90DF900895DF92EF92FF9273
:101040000F931F93CF93DF93F82EE62ED42E09EF44
:101050001CE2D0E0C0E08091B72C9091B82CC8176A
:10106000D90784F4D8018D919D918D01DC01ED911A
:10107000FC910680F781E02D2D2D4E2D6F2D0995C9
:101080002196E9CFDF91CF911F910F91FF90EF90C3
:10109000DF900895AF92BF92CF92DF92EF92FF92CE
:1010A0000F931F93CF93DF936C017B018B01040F90
:1010B000151FEB015E01AE18BF08C017D10759F02C
:1010C0006991D601ED91FC910190F081E02DC6016E
:1010D0000995892B79F7C501DF91CF911F910F9168
:1010E000FF90EF90DF90CF90BF90AF900895FC01FC
:1010F000A485B58511968C91119781FD1BC06C91CB
:1011000082898F5F8F739389981739F0A289AE0F08
:10111000BF2FB11D59966C93828BE756FF4F80818C
:101120009181009741F0DC01ED91FC910190F081FB
:10113000E02D09948C91089581E008950F9391E03A
:10114000909361291092602960935E2970935F29C2
:1011500040935D2920935C2910925B2910925A29B3
:1011600000935929880F8093582923E030E044E008
:1011700050E080915D29882341F0209356293093D7
:101180005729809158298E7F0BC080915C29882334
:1011900051F04093562950935729809158298160E6
:1011A0008093A70808C080915D29811104C08091B7
:1011B0005C29882311F3809160298823E1F38091D1
:1011C00060298330B1F280915C29882321F08091DD
:1011D0005A290F91089580916029823031F085302D
:1011E00031F0813031F480E0F4CF81E0F2CF83E060
:1011F000F0CF84E0EECFE0EAF8E091859066918749
:1012000022E030E0209356293093572980934829D3
:1012100010924729089581E0809347291092482928
:1012200093E09093AA089091AB0891FF10C01092A0
:101230005429E0914529F091462909958093532935
:1012400085E090E080935629909357290895109255
:1012500055298093522986E090E0F4CF8F929F9297
:10126000AF92BF92CF92DF92EF92FF92CF93DF9334
:1012700060342DE0720723E08207910508F454C022
:10128000611525E372072CE08207910508F445C03B
:1012900060387F448241910508F046C0C8E7D0E03D
:1012A00020E432E44FE050E0809001289090022842
:1012B000A0900328B0900428C501B4010E946036B4
:1012C00069017A018AE0C81AD108E108F108C5016C
:1012D000B40120E432E44FE050E00E946036DE01C9
:1012E0000E944D3628EE33E040E050E00E94603628
:1012F000C21AD30AE40AF50AF694E794D794C7947D
:10130000C092A608DF91CF91FF90EF90DF90CF9031
:10131000BF90AF909F908F900895CCE2D1E020E8ED
:101320003AE146E050E0C0CFC8EED3E020EA36E82C
:1013300041E050E0B9CF6093432970934429089568
:1013400060934129709342290895E0914329F091D7
:101350004429309741F01092402910923F29099575
:1013600080913F29089580E00895E0914129F0910E
:101370004229309759F030913E2920913D2932176A
:1013800028F010923E2980933D29099408950895EC
:10139000E0913E2980913D29E81730F4F0E0E354D4
:1013A000F74D808190E008958FEF9FEF0895909121
:1013B0003E2980913D292FEF3FEF981748F4E92F00
:1013C000F0E0E354F74D208130E09F5F90933E2999
:1013D000C901089580913D2990913E29891B990B5F
:1013E0000895CF92DF92EF92FF920F931F93CF93C6
:1013F000DF937C018A01EB016B01C40ED51ECC1575
:10140000DD0551F06991D701ED91FC910190F081DA
:10141000E02DC7010995F3CFC801DF91CF911F914E
:101420000F91FF90EF90DF90CF90089520913F298A
:1014300027FF08C021E030E0FC012283338390E0E5
:1014400080E0089580914029E82FF0E0E35CF74DBB
:1014500060838F5F8093402980933F2981E090E0F3
:101460000895DC01ED91FC91008CF18DE02D61E09F
:1014700009940F9380915629909157290197A1F4CF
:1014800080916129811112C0062F20E040913F29EF
:101490006DE378E280913C280E949E0810924029DA
:1014A00010923F290F91089580E0F8CF81E0F6CFA8
:1014B00060933C281092402910923F290895DC0146
:1014C000ED91FC91048CF58DE02D21E009940F93B2
:1014D0008DEB98E28093492990934A29809156296F
:1014E000909157290197C9F480916129811117C002
:1014F000FA014138510510F0E0E8F0E0022F862FA4
:101500002E2F40E070E060E00E949E0810923E297D
:1015100080933D2990E00F91089580E0F7CF81E01E
:10152000F5CFCB01BA010C942E09E0EAF8E0138262
:10153000168281E0858314861186109256291092B6
:101540005729089510923E2910923D291092402962
:1015500010923F298091562990915729892BD9F4CF
:1015600082E090E080935629909357291092552954
:1015700010925429109247291092482910923B2822
:1015800010925229660F6093AC0881EE8093A908EF
:1015900081E08093A30885EA99E0809345299093A0
:1015A00046298DE398E280934B2990934C2985EB53
:1015B00099E080935029909351298DEB98E2809384
:1015C0004D2990934E2980E880934F2908951092D9
:1015D0003E2910923D291092402910923F29809176
:1015E000562990915729892BF1F48091E305809336
:1015F000E30581E090E0809356299093572910925B
:101600005A2910925B29109261291092602981EC6D
:101610008093A30860EA76E881E090E00E942E09BA
:1016200081E08093A50808950895EF92FF920F93AB
:101630001F93CF93DF937C01EB018B01040F151FE8
:10164000C017D10759F0D701ED91FC910480F581C5
:10165000E02D6881C70109958993F2CFDF91CF9181
:101660001F910F91FF90EF9008950F931F93CF93C9
:10167000DF93EC018B018091C008E881F98104803F
:10168000F581E02D86FD13C0612FCE010995182F3D
:10169000E881F9810480F581E02D602FCE01099564
:1016A000082FC801DF91CF911F910F910895CE01AE
:1016B0000995082FE881F9810480F581E02D612FDB
:1016C000CE010995182FEDCF00006093C4088091DA
:1016D000C30887FFFCCF8091C40808958F929F9222
:1016E000AF92BF92CF92DF92EF92FF920F931F9330
:1016F000CF93DF93FC018085882319F081FF0EC012
:101700007894DF91CF911F910F91FF90EF90DF9030
:10171000CF90BF90AF909F908F90089580FFF1CFB2
:1017200082849384A484B584C12CD12C760110E0EA
:101730009401A501B601C701A0E00E94FA3899F111
:10174000217030E040E050E060E070E080E090E048
:101750000E94FA38D9F0D0E0C0E0103370F4C12F05
:10176000C695C695C69580E2C89FE0011124C05F6A
:10177000DB4F812F8770C80FD11DCF01810F911DC5
:10178000DC0152968C919881892B88839401A50164
:10179000B601C70101E00E94DF3849015A016B011F
:1017A0007C011F5FC5CF86849784A088B188C12C37
:1017B000D12C760110E29401A501B601C701A0E089
:1017C0000E94FA3809F49DCF217030E040E050E0EB
:1017D00060E070E080E090E00E94FA38D9F0D0E05C
:1017E000C0E0103370F4C12FC695C695C695B0E21F
:1017F000CB9FE0011124C05FDB4F812F8770C80FA2
:10180000D11DCF01810F911DDC0152968C919881E1
:10181000892B88839401A501B601C70101E00E94CC
:10182000DF3849015A016B017C011F5FC4CFFC0105
:101830006F3F710581F1808581FD2DC0603271059A
:101840005CF581E090E002C0880F991F6A95E2F78D
:1018500080959095092E000CAA0BBB0B42855385F1
:101860006485758584239523A623B7238287938770
:10187000A487B58782859385A485B585892B8A2B16
:101880008B2B49F486859785A089B189892B8A2B72
:101890008B2B09F4108608956052710981E090E065
:1018A00002C0880F991F6A95E2F780959095092EDE
:1018B000000CAA0BBB0B4685578560897189842370
:1018C0009523A623B72386879787A08BB18BD2CF8A
:1018D000FC016F3F7105E9F1603371051CF082E096
:1018E0008087089580858160808760327105C4F4A7
:1018F00081E090E002C0880F991F6A95E2F7092EF7
:10190000000CAA0BBB0B4285538564857585842B1F
:10191000952BA62BB72B82879387A487B58708952D
:101920006052710981E090E002C0880F991F6A95AA
:10193000E2F7092E000CAA0BBB0B46855785608980
:101940007189842B952BA62BB72B86879787A08B25
:10195000B18B0895E0ECF8E020812E7F2083FC011C
:1019600017820895E0ECF8E082818E7F82830895EB
:10197000E0ECF8E08281816082830895DC011A96B0
:10198000ED91FC9130E020E00994DC011696ED9198
:10199000FC9130E020E040E069E10994DC0116961A
:1019A000ED91FC9130E020E040E068E109949A017B
:1019B000DC011696ED91FC91462F67E10994EF92B8
:1019C000FF920F931F93CF93DF931F92CDB7DEB794
:1019D0007C018B01D8016C91673129F150F465319C
:1019E000A0F40F90DF91CF911F910F91FF90EF9096
:1019F00008956A3118F16E3FA1F7F80141814983DA
:101A000069E2C7010E94BE0C0BC0F8014181498305
:101A1000D7011696ED91FC9130E020E0C7010995C1
:101A20000E5F1F4FD7CFF80181818983AE014F5FD1
:101A30005F4F61E0C7010E94D70CF2CF0F5F1F4FCD
:101A4000D7011696ED91FC9130E020E040E0C7010F
:101A50000995C0CF462FDC011696ED91FC9130E040
:101A600020E066E10994462FDC011696ED91FC9189
:101A700030E020E065E10994EF92FF920F931F930D
:101A8000CF93DF93EC01042F79016D3009F446C048
:101A900050F46B30C9F1693009F49FC06A3009F421
:101AA00065C080E046C06E3009F452C06F3099F7CF
:101AB0000E94CE0CF7011381110F110F110F6C89C9
:101AC000160F60E4CE010E94330D612F62956F7096
:101AD0006061CE010E94330D612F6F70CE010E94B4
:101AE0002A0DF7016481606BCE010E942A0DF70177
:101AF000408151816281660F660F660FCE010E94A0
:101B0000D70C0150A1F72EC069E77BEB442311F0FD
:101B100064E77BEBCE010E94DF0C0AC0411110C0CC
:101B20006DE67BEB0E94DF0CE881F98182898C8B6A
:101B300081E0DF91CF911F910F91FF90EF90089579
:101B400066E67BEB0E94DF0CE881F9818389EFCFA9
:101B50000E94CE0C61E8CE010E94330D602FCE01B1
:101B60000E942A0DCE010E94C50CE2CFEA85FB85BA
:101B700030E020E040E068E2CE010995EE81FF818F
:101B800030E020E040E064E1CE01099541E06BE403
:101B9000CE010E94BE0CE881F981448169E2CE0148
:101BA0000E94BE0C40E06BE4CE010E94BE0CE881B6
:101BB000F981448169E2CE010E94BE0C41E06BE4F0
:101BC000CE010E94BE0CE881F981458169E2CE0117
:101BD0000E94BE0C6EE77BEB9DCF83EB9BEB888373
:101BE00099831C8AA5CFDC011896ED91FC9130E019
:101BF00020E040E069E10994DC011896ED91FC9148
:101C000030E020E040E068E10994CF93DF931F9239
:101C1000CDB7DEB76983BE016F5F7F4F0E94250598
:101C20000F90DF91CF910895EF92FF921F93CF9382
:101C3000DF93EC01162F7A010E94FC0D60E4CE01C7
:101C40000E94050EE885F9859701412F67E1CE01D5
:101C50000995CE01DF91CF911F91FF90EF900C94E9
:101C6000F30DEF92FF921F93CF93DF93EC01142FAC
:101C70007901663181F138F4643109F44BC0653182
:101C800079F080E022C06831C9F150F16931C9F7BB
:101C900080913A28882391F1CE010E94F30D2EC045
:101CA00080913A28882319F0CE010E94F30DCE01CD
:101CB0000E94FC0D60E0CE010E94050E612FCE0156
:101CC0000E94050E81E080933A28DF91CF911F9109
:101CD000FF90EF900895642F0E94050E81E0F5CFEC
:101CE00080913A28882319F0CE010E94F30DA701B4
:101CF000193138F4612FCE010E94140E10923A2847
:101D0000EDCF68E1CE010E94140E185188E1E80E73
:101D1000F11CEDCF8E898F3F11F488E78E8BE8851B
:101D2000F9859701412F64E1CE01DF91CF911F9199
:101D3000FF90EF900994CF93DF93EC01A889B989C4
:101D4000FD01349131969491319684911396FD0161
:101D5000A4916317A8F1961798F1631B770B8A9FDC
:101D6000E02D1124E69FC001E79F900D1124280F5C
:101D7000392F311D83E0220F331F8A95E1F7C90106
:101D80000496DA01245F3F4FE889F989E80FF91FCB
:101D9000E491ED93019682179307B1F78D8988231B
:101DA00061F0FA019A01285F3F4F8191DF0111979D
:101DB00080958C932E173F07C1F7DF91CF9108953F
:101DC000FA01CA0108961192E817F907E1F7E6CF80
:101DD0004F925F926F927F928F929F92AF92BF923B
:101DE000CF92DF92EF92FF920F931F93CF93DF93E7
:101DF000CDB7DEB72D97CDBFDEBF7C01C62ED42E6A
:101E0000B22EDC0150968D919C91FC01329614917A
:101E100031960491512E560E040F81E0860F58160C
:101E200008F411E0712CFE0131964F0144244394D3
:101E3000672CAC2C262DA4016B2DC7010E949B0E94
:101E4000AC86DD864B8689869A86D7011496ED91FD
:101E5000FC919E01275F3F4F41E06FE0C70109956C
:101E60006394A394A51430F3D394710ED01600F3A9
:101E70002D96CDBFDEBFDF91CF911F910F91FF90C7
:101E8000EF90DF90CF90BF90AF909F908F907F901A
:101E90006F905F904F900895262F482F42954F7076
:101EA000440F682F6F7080E49AE20C94E80E1F9341
:101EB000CF93DF93182FEB0180917F2960E2880F89
:101EC000880F880F0E944C0F80917F299091802964
:101ED000019611164CF01123C9F080917F29909141
:101EE000802901978C0F9D1FBE010E94C3388093EB
:101EF0007F299093802980917F296EE3880F880F36
:101F0000880FDF91CF911F910C944C0F10927F2975
:101F100010928029F0CF1F93CF93DF93182F8091D9
:101F200068296091B72C7091B82C811112C0C091B2
:101F3000762AD091772ACC0FDD1FC750D34D8881E8
:101F400099810E94FD04E881F981E259FF4F608187
:101F50007181812F0E94570F81E080933928DF9192
:101F6000CF911F910895CF93DF93EC01683189F1F0
:101F700030F4643199F0673151F080E005C0693187
:101F8000B9F16032D1F781E0DF91CF91089550E04F
:101F9000B9018CE19AE20E94F109F5CF8C859D850B
:101FA000AE85BF85892B8A2B8B2B71F4E881F98153
:101FB000A585B0E020EA36E841E050E00E944D36C9
:101FC0006C877D878E879F878CE19AE20E94E70A63
:101FD000DACF6C857D858E859F850E942E096E895E
:101FE00070E0759567958CE19AE20E94580ACBCF14
:101FF0008CE19AE20E94310AC6CF0F931F93CF93D0
:10200000DF938C016C32C0F46A3208F040C0683251
:1020100069F1693209F44BC080E06034C8F16F7334
:10202000F801E60FF11D868D8F3F89F1603108F0D0
:1020300058C0642F70E017C06D3209F43FC060F3E0
:1020400084EB860F823040F7C62FCF73C00FD12F9D
:10205000D11D8E8D61E070E041113EC00E940507E8
:1020600070E060E08E8D0E94000711C0025E1F4F7D
:10207000D0E0F80181918F018F3F31F061E070E095
:10208000D03158F40E940507DF5FD63191F781E027
:10209000DF91CF911F910F9108950E94050761E094
:1020A00070E0F801319780810E940007EDCF642F26
:1020B00070E090E080E00E94B107E9CF85E090E019
:1020C000433010F082E090E0880F991F880F991F2D
:1020D00005970197F1F7DBCF0E94050761E070E0FB
:1020E000C1CF0E94DB0621E0892B09F420E0F80132
:1020F000218FCDCF1F93CF93DF93EC01EC89FD8926
:1021000049AD6A3059F43396E491E40FE9AF18AE63
:1021100081E090E0DF91CF911F910895262F3296B4
:10212000149168AD04960E94E80EE8ADE10FE8AFA7
:10213000EFCFFC0120917F2930918029213031059A
:1021400049F4838D882319F0148E82830895828147
:10215000848F08952115310519F02630310561F479
:102160004DE0429FC001439F900D1124E80FF91FDD
:10217000968581E0891B87870895FC0180917F29DE
:10218000909180298130910549F4838D882319F03D
:10219000148E828308958281848F089502978530FA
:1021A000910540F4E80FF91FE053FF4F808191E063
:1021B000892780830895FC0180917F29909180294F
:1021C00083309105B1F01CF4019739F00895843003
:1021D0009105A1F00597B9F00895838DDF01A8500E
:1021E000BF4F882319F0148E8C9308958C91848F9F
:1021F000089595A981E0891B86AB0895ED5BFF4F9B
:1022000085E180830895E05BFF4F8CE6FACFFC0107
:1022100080917F29909180298130910549F4838DA7
:10222000882319F0148E828308958281848F089503
:102230008430910561F4DF01AE5BBF4F8C91119644
:10224000ED51FF4F882369F01C9280830895059714
:1022500051F4DF01A15BBF4F8C911196EC51FF4F00
:10226000F1CF80818C930895FC0180917F2990911A
:102270008029019741F4838D882319F0148E82837D
:1022800008958281848F0895FC0180917F29909127
:102290008029019741F4838D882319F0148E82835D
:1022A00008958281848F0895242F9FEF960F99308F
:1022B00008F59091682991111DC0E091762AF0915E
:1022C000772AEE0FFF1FE750F34DA081B181FD018A
:1022D000E259FF4F408151816417150609F054F40B
:1022E000ED91FC9111970088F189E02D462F682F20
:1022F000CD010994089580916829811124C08091AD
:10230000392881111DC0E091762AF091772AEE0FCD
:10231000FF1FE750F34D80819181DC01ED91FC912D
:102320000284F385E02D0995E091762AF091772AD1
:10233000EE0FFF1FE750F34D808191810C94B7049D
:1023400010923928F1CF089590916829911125C0F4
:102350009091392891111EC0682FE091762AF09152
:10236000772AEE0FFF1FE750F34D80819181DC014A
:10237000ED91FC910084F185E02D0995E091762A9C
:10238000F091772AEE0FFF1FE750F34D8081918186
:102390000C94B70410923928F1CF0895FC012581DF
:1023A000222361F02DE0269FF001279FF00D1124DC
:1023B000E80FF91F87859685981386870895161666
:1023C0009CF420917F29309180294DE0429FF001BB
:1023D000439FF00D1124E80FF91F87859189891714
:1023E00010F48F5F878708956623E9F320917F2992
:1023F000309180294DE0429FF001439FF00D112460
:10240000E80FF91F87859089981768F78150EACF00
:1024100020917F29309180292115310561F02630E6
:10242000310549F02230310521F42091672921112D
:1024300002C00C94DF11089520917F2930918029EA
:10244000A901425051094530510538F4280F391F70
:10245000F901E253FF4F208121110C94DF110895FF
:1024600020917F29309180292330310509F440C023
:102470002115310531F4DC01D5962C91222339F058
:1024800008952430310529F025303105F9F00C94F8
:10249000DF11161664F4FC01ED5BFF4F2081815BB8
:1024A0009F4FDC018C91281718F52F5F0DC0662314
:1024B000F9F0FC01ED5BFF4F20818C5B9F4FDC014D
:1024C0008C918217A8F421502083089516163CF4AD
:1024D000FC01E05BFF4F20818E5A9F4FE2CF6623C5
:1024E00039F0FC01E05BFF4F20818E5B9F4FE7CF0F
:1024F000089520917F29309180292250310923307D
:10250000310510F00C94DF110895CF93DF93FC0197
:1025100080917F2990918029892B49F5878516160E
:1025200004F59189891710F48F5F8787EF01CE5BDF
:10253000DF4F9F012A583F4FA785B0E0A859BF4FF2
:10254000AA0FBB1FAE0FBF1F8C918B839881891779
:1025500008F489832D962C173D0771F7DF91CF91F1
:102560000895662319F3882309F38150DECFCF0144
:10257000DF91CF910C94DF11FC0180917F29909124
:1025800080298230910529F00397A1F0CF010C94A6
:10259000DF1116163CF481A595A98917E0F48F5F29
:1025A00081A708956623B9F081A592A5981798F49C
:1025B0008150F6CF16163CF486A990AD891758F4D1
:1025C0008F5F86AB0895662331F086A990A5981792
:1025D00010F48150F6CF0895CF92DF92EF92FF92E0
:1025E0000F931F93CF93DF93A22F242F2150330BF0
:1025F0007901C0907F29D0908029C091762AD0910E
:10260000772AA1962C153D0521F1142FCC0FDD1F43
:10261000C954D34D888199810E94FD0460E28C2DBC
:10262000880F880F880F0E944C0FE0927F29F0924C
:1026300080298FEF810F6EE3880F880F880FDF915D
:10264000CF911F910F91FF90EF90DF90CF900C945E
:102650004C0F4DE0429F8001439F100D1124080F45
:10266000191FF801C088D12CF12CE12C8189282F69
:1026700030E050E040E02C193D094E095F09B0E020
:102680000E944D362FE730E040E050E00E942E36A9
:10269000C20ED31EE41EF51EF801C786CC0FDD1F47
:1026A000C954D34D88819981DF91CF911F910F91AA
:1026B000FF90EF90DF90CF900C94B704413051F031
:1026C000473041F0433021F430916729311102C085
:1026D0000C94EC120895443041F0413021F4FC0197
:1026E00035A9311102C00C94EC1208953DEF340F5E
:1026F000333010F00C94EC1208951F93CF93DF93B6
:10270000EC01142F0E94EC121130E1F4DE01AE5BFB
:10271000BF4F9E012A583F4FEF85F0E0E859FF4F29
:10272000EE0FFF1FEC0FFD1F808113968C93139704
:102730009C91891718F411968C9311971D96A217E6
:10274000B30751F7DF91CF911F910895CF92DF9298
:10275000EF92FF920F931F93CF93DF936C01EB01E6
:102760007B01E40EF51E10E000E0CE15DF0561F000
:102770006991D601ED91FC910190F081E02DC601A7
:102780000995080F191FF1CFC801DF91CF911F9153
:102790000F91FF90EF90DF90CF900895089590E013
:1027A00080E008953DEF340F323010F00C94EC12BD
:1027B0000895FC0180917F299091802981309105B5
:1027C00049F4838D882319F0148E828308958281C1
:1027D000848F08959C01225031092230310500F583
:1027E0008330910521F420A5222321F0089525A905
:1027F000211116C02DE0289FD001299FB00D112472
:10280000AE0FBF1F1E969C911E9781E0891B1F96DD
:102810008C9386A9882329F0E05AFE4F10821182FA
:10282000089581A58823E1F3E25AFE4FF7CF209166
:102830007F2930918029225031092230310510F052
:102840000C94DF110895DC01E62FF0E027E2AD01E2
:10285000481B590B4E175F075CF0E80FF91F20E289
:10286000AF01481B590B4730510524F42193F8CF91
:102870002D93EDCF10820895F0E0E0E06623C9F0DB
:10288000262F2150330BF901F595E795DC0127E25E
:10289000AD01481B590BE417F50714F02D93F8CF41
:1028A000319660FF06C0DC01AE0FBF1F119724E216
:1028B0002C93E80FF91F20E2AF01481B590B47305A
:1028C000510514F42193F8CF10820895DC018D9105
:1028D0009C91DC01ED91FC910190F081E02D099437
:1028E000EF92FF920F931F93CF93DF937C01EA0146
:1028F0008B01040F151FC017D10739F06991F7013B
:10290000808191810E946614F6CFDF91CF911F9153
:102910000F91FF90EF900895AC0182EB9AE20C9436
:1029200070141F93CF93DF932150203118F587FF48
:1029300021C0D42F162FC82F622F682B8091B22A66
:102940009091B32A0E946614612F6F778091B22A0A
:102950009091B32A0E946614CF7EC03C59F06D2F2F
:102960006F778091B22A9091B32ADF91CF911F9116
:102970000C946614DF91CF911F910895262F40E0AB
:10298000682F80E80C949114EF92FF920F931F939D
:10299000CF937C018C010F511C4FC0E0F801819155
:1029A0008F01882341F0F701638D8C2F0E94BE14A4
:1029B000F80131971082CF5FC03881F7CF911F9116
:1029C0000F91FF90EF900895FF920F931F93CF9375
:1029D000DF93EC01042FF22E8B8D882309F44EC077
:1029E0009E8596134BC0682F842F0E94BE1481E0F1
:1029F0008D8318A5112309F441C011500E94E107ED
:102A000027E12F1508F040C028EE2F0D3DA9E32F38
:102A1000E00FFF27FF1FAF013C974D505109403693
:102A2000510508F40E2FDE01A854BE4F3C91432FF0
:102A300050E0FA01779633E0EE0FFF1F3A95E1F789
:102A4000EC0FFD1F0083FA0103E0EE0FFF1F0A9554
:102A5000E1F7CE0FDF1FFE01E754FF4F20833196D1
:102A6000608371838283938334961082C154DF4FD5
:102A70001883CA0101968F7199278C93DF91CF91AA
:102A80001F910F91FF90089520E0C0CFCF93DF9367
:102A9000EC019B8D992399F08E85861310C088A533
:102AA000481768F08DA9481750F4FE01EE5BFF4F00
:102AB0008081692F840F0E94BE1481E08D83DF9195
:102AC000CF910895CF93DF93E091762AF091772A02
:102AD000EE0FFF1FE750F34D80819181DC01ED91F6
:102AE000FC910684F785E02D0995D82F882341F0C5
:102AF000C0E06D2F8C2F0E94BE14CF5FCF37C9F777
:102B0000DF91CF910895CF93DF93EC018D818111F7
:102B100009C0842F6B8D98A5992339F00E94BE14AB
:102B200081E08D83DF91CF910895FE01E25AFE4F3F
:102B300020813181232B91F380913828EFCF242FEE
:102B4000462F682F80E90C949114CF92DF92EF9278
:102B5000FF921F93CF93DF93EC01C0906229D09036
:102B60006329E0906429F0906529C701B60128E146
:102B700030E040E050E00E9460366115710581054B
:102B8000910589F1613071058105910591F11B8DE8
:102B9000112309F12DA92223F1F088E1289F90014A
:102BA0001124032E000C440B550BC701B6010E94E3
:102BB00060369B016B837C83FE01E45AFF4F80816A
:102BC000882349F0C90168E170E00E94C33800978A
:102BD00099F0039709F1DF91CF911F91FF90EF904A
:102BE000DF90CF90089561E070E082E00E9494064B
:102BF000CECF70E060E0F9CFFE01E759FF4F608172
:102C0000412FB797232B19F0FE01E15BFF4F808125
:102C10000E949F151D82DFCF612FFE0123303105F9
:102C200041F4EE5BFF4F80810E94BE1481E08D83F2
:102C3000D2CFE15BFF4FF7CF0F931F93CF93DF937B
:102C4000EC011B8D112309F445C02E85222309F4C4
:102C500041C0FC01E759FF4F6081062F000F060FAE
:102C6000000F029F90011124032E000C440B550B02
:102C700060916229709163298091642990916529FE
:102C80000E9460366B837C83202F30E0CB01B9013A
:102C90000E94C338FE01EB52FF4F60830097F9F4A6
:102CA0007727FE01E60FF71FE053FF4F808188234F
:102CB00089F06E5F7F4F8DE0869FF001879FF00D5A
:102CC0001124EC0FFD1F412F6091002886850E9482
:102CD0009F151D82DF91CF911F910F91089503974A
:102CE000C9F78D818111F6CF77276E5F7F4F8DE019
:102CF000869FF001879FF00D1124EC0FFD1F612FBF
:102D000086850E94BE1481E08D83E4CFEF92FF920E
:102D10000F931F93CF93DF93EC01FC01E15BFF4F17
:102D2000E081F0E0E45AFF4FEE0FFF1FEC0FFD1FB4
:102D300080819181009709F44EC046E0489F900140
:102D4000499F300D1124032E000C440B550B60914C
:102D500062297091632980916429909165290E946C
:102D600060366B837C832DA9211135C0FE01EE5B9B
:102D7000FF4F208121112FC0FB8CFF2061F18E01BC
:102D800060597F4F660F771FFE01E60FF71FC08166
:102D9000D181EE24E3942097F1F088819B819923DF
:102DA00079F04F2D69810E949F15E881E00FF12F86
:102DB000F11DEF51FC4FE0820C80DD81C02DEBCF87
:102DC0006F2D0E94BE14E881E00FF12FF11DEF512D
:102DD000FC4F1082F1CFDF91CF911F910F91FF90A7
:102DE000EF900895EF92FF921F93CF93DF93EC0142
:102DF0001B8D112309F451C0EE85F0E0E859FF4F17
:102E0000EE0FFF1FEC0FFD1FE080F180E114F104D5
:102E100009F443C086E08E9D90018F9D300D1124F2
:102E2000032E000C440B550B6091622970916329AD
:102E300080916429909165290E9460366B837C8320
:102E4000CB0166E070E00E94C338FB01009709F0F7
:102E500045C0DE01AE5BBF4F2C9130E05A968C919D
:102E6000A701481B5109460F571F429FC001439FAE
:102E7000900D529F900D1124B7010E94C338821704
:102E800093078CF488A5FE01EE51FF4F8083412FFC
:102E9000609100280E949F151D82DF91CF911F91A4
:102EA000FF90EF900895DE01A15BBF4F2C9130E0C1
:102EB0005A968C91B701681B71096E0F7F1F629F34
:102EC000C001639F900D729F900D1124B7010E9465
:102ED000C338821793070CF78DA9D5CF0397E9F66E
:102EE0008D818111DACFFE01EE51FF4F612F80817C
:102EF0000E94BE1481E08D83D0CF8F929F92AF92BB
:102F0000BF92FF920F931F93CF93DF93EC01042F97
:102F1000F22E4B8D442309F44FC08E8586134CC08E
:102F2000622F802F0E949F151D8218A5112309F47E
:102F300043C011500E94E1074B015C0187E128EE7C
:102F40002F0D8F1508F020E08DA9800F9927991F6C
:102F5000AC014C5051090D978036910508F4042FAF
:102F6000DE01A854BE4F4C9150E0FA01779683E001
:102F7000EE0FFF1F8A95E1F7EC0FFD1F0083CA01DA
:102F800033E0880F991F3A95E1F78C0F9D1FFC01E4
:102F9000E754FF4F2083319680829182A282B382D0
:102FA000349621E0208381549F4FFC0110834F5FB2
:102FB0005F4F4F7155274C93DF91CF911F910F9128
:102FC000FF90BF90AF909F908F900895CF93DF9325
:102FD000EC01842F4B8D442391F09E8596130FC0F6
:102FE00098A5891760F09DA9891748F4622FFE0102
:102FF000EE5BFF4F9081890F0E949F151D82DF912C
:10300000CF9108956D3F48F46A3F10F4683F39F45A
:10301000FC01808191810C9466146E3FC8F708957D
:1030200080916729882391F081E0809366290E942E
:1030300082076093382A7093392A80933A2A9093B2
:103040003B2A6CEF82EB9AE20C940218089580916F
:1030500067298823C9F0109262291092632910927F
:10306000642910926529109266290E948207609354
:10307000382A7093392A80933A2A90933B2A6AEF30
:1030800082EB9AE20C94021808950F931F93CF934A
:10309000DF93FC0125812223A9F18B01EC01623031
:1030A000710579F480916729882359F0609105288A
:1030B0007091062880910728909108280E94703707
:1030C00069A78DE0809FF001819FF00D1124EC0F26
:1030D000FD1F678586858617A9F002301105E9F086
:1030E0000730110509F449C00115110509F04BC05D
:1030F0006E8781E080936729611109C00E942718BB
:1031000010926729DF91CF911F910F910895DF9160
:10311000CF911F910F910C94101880916729811104
:1031200022C070E090E080E00E949F379B01AC01DC
:1031300020930528309306284093072850930828A9
:1031400060E876E988E19AE40E94FE360E947037D2
:103150006093342A7093352A8093362A9093372AC5
:1031600089A588A7CFCF80917F2990918029029748
:10317000B9F7CE010E94B704F3CFC759DF4F688378
:1031800060930028BFCFB801CE01DF91CF911F918E
:103190000F910C94CE11813E10F40C949114883F41
:1031A00028F0682F82EB9AE20C940218089587FFAA
:1031B0000AC09CE0980F923030F08D3F21F0803FA4
:1031C00018F4807F089580E00895982F9F7E282F1F
:1031D0002F7C203839F0803E29F081E0903C19F0B6
:1031E00080E0089581E008950895FC01838D08959D
:1031F000FC01838D0895FC01838D0895FC01838D6E
:103200000895FC01838D0895FC01838D0895FC01D0
:10321000838D0895FC01838D0895DC01ED91FC916F
:103220000088F189E02D23E030E00994BF92CF922D
:10323000DF92EF92FF920F931F93CF93DF93EC01F6
:103240008B8D882309F44FC09E8596134CC0C22EE7
:10325000D42E482F622F8D2D0E949F15FE01ED0D5B
:10326000F11DEF51FC4FBB24B394B08288A5882395
:10327000D1F1FE01E052FC4F1082E251F340008197
:103280001181EB80FC8086E090E00E940639FC0111
:10329000892BA1F0D082C1828FEF800F8283B3820D
:1032A000D701AA0FBB1FAC0FBD1FA052BF4F8D91FE
:1032B0009C91119784839583ED93FC9384E090E037
:1032C0000E940639FC01892B71F0E082F182000F27
:1032D000111FC00FD11FC253DF4F88819981828394
:1032E0009383E883F983DF91CF911F910F91FF9032
:1032F000EF90DF90CF90BF900895CF92DF92EF9242
:10330000FF920F931F93CF93DF93EC018B8D882354
:1033100009F449C09E85961346C0C22ED42E682F4C
:10332000842F0E94BE14FE01ED0DF11DEF51FC4FE4
:10333000108288A58823B9F1FE01E253FF4F008176
:103340001181EB80FC8086E090E00E940639FC0150
:10335000892BA1F0D082C1828FEF800F82831382EC
:10336000D701AA0FBB1FAC0FBD1FA052BF4F8D913D
:103370009C91119784839583ED93FC9384E090E076
:103380000E940639FC01892B71F0E082F182000F66
:10339000111FC00FD11FC253DF4F888199818283D3
:1033A0009383E883F983DF91CF911F910F91FF9071
:1033B000EF90DF90CF900895CF93DF9380916829AD
:1033C00091E08927809368298823D1F069EB7CE21A
:1033D00085EF9BE20E94303A1092342C6091B72C1A
:1033E0007091B82C80E00E94570F81E08093B52C3B
:1033F0009FE39093B62C80933928DF91CF91089565
:1034000080917F29909180298093762A9093772AC2
:10341000880F991FFC01E750F34DC081D181BE0197
:1034200068587F4F85EF9BE20E94303A1092342C0F
:10343000C259DF4F68817981D5CFCF936830D8F4F6
:10344000C62F81E08093682980917F2960E2880FF0
:10345000880F880F0E944C0F8C2F90E06091B72C42
:103460007091B82C0E94C33880937F299093802953
:10347000CF910C94DC19CF910895E0917F29F091C0
:103480008029E830F10508F03DC09B01DC01E55BD7
:10349000F54E0C94D738531A621A6D1A701A831AA3
:1034A000AC1AD51ADD1A1F968C911F9790E0845A9A
:1034B0009F4F880F991FA80FB91F6D917C91C9016B
:1034C0000C94303A5C968C916DE37DEB8823B9F3D4
:1034D0001F928F9381E49DEB09C099968C91F8CF50
:1034E000D6968C911F928F9385E49DEB9F938F933B
:1034F0003F932F930E94373A0F900F900F900F90A9
:103500000F900F900895FC01ED5BFF4F80816CE000
:103510000E94A338682F6150770BAB015F936F93C4
:10352000892F90E0805A9F4F880F991FA80FB91FCD
:1035300011968C9111978F938C918F938BE49DEBC7
:103540009F938F933F932F930E94373A8DB79EB7E7
:1035500008968DBF9EBF0895FC01E05BFF4F808100
:103560006CE00E94A338682F6150770BAB015F932A
:103570006F93892F90E0805A9F4F880F991FA80F53
:10358000B91F11968C9111978F938C918F938BE427
:103590009DEB9F938F933F932F930E94373A8DB764
:1035A0009EB708968DBF9EBF0895FC01E35AFF4F5A
:1035B000808190E0825A9F4F7CCFA659BF4F8C915B
:1035C00087CFFC019B0180917F29909180298130D8
:1035D0009105B9F087309105E1F0009711F58785E5
:1035E0001F928F9381E49DEB9F938F933F932F9333
:1035F0000E94373A0F900F900F900F900F900F90FE
:103600000895848D6DE37DEB8111EACFC9010C949F
:10361000303AE659FF4F80811F928F9381E59DEBF1
:10362000E3CFDF01A80FB91FA253BF4F4C91411147
:1036300003C065E57DEBEACF4DE0489FD001499F8F
:10364000B00D1124AE0FBF1F1F968C916CE00E942D
:10365000A338682F6150770BAB015F936F93892F6D
:1036600090E0845A9F4F880F991FE80FF91F8181BE
:103670008F9380818F938BE49DEB9F938F933F93E8
:103680002F930E94373A8DB79EB708968DBF9EBF85
:103690000895FC019B0180917F29909180298130C0
:1036A000910509F454C06CF40097B1F16DE0689F86
:1036B000A001699F500D1124E40FF51F87851F920B
:1036C00036C08230910509F44AC08330910571F704
:1036D00086A96CE00E94A338682F6150770BAB017C
:1036E0005F936F93892F90E0845A9F4F880F991FA3
:1036F000E80FF91F81818F9380818F938BE49DEB7D
:103700009F938F933F932F930E94373A8DB79EB725
:1037100008968DBF9EBF0895878590E088599F4F7A
:10372000880F991FE80FF91F81818F9380818F93F4
:1037300081E49DEB9F938F933F932F930E94373AA1
:103740000F900F900F900F900F900F900895848D11
:103750008111B5CF6DE37DEBC9010C94303A81A5A1
:103760006CE00E94A338682F6150770BAB015F9328
:103770006F93892F90E0845A9F4F880F991FE80F0D
:10378000F91F81818F9380818F938BE49DEB9F93B1
:103790008F933F932F930E94373A8DB79EB7089629
:1037A0008DBF9EBF0895E0917F29F0918029E83078
:1037B000F10508F0A9C0272F362FDC01EE51F44E99
:1037C0000C94D738071CF01BEA1B0A1C1A1C431C5C
:1037D0006C1C781C99966C91832F972F0C94231452
:1037E0005C968C916DE37DEB882301F11F928F93A2
:1037F00081E49DEB9F938F932F933F930E94373AE1
:103800000F900F900F900F900F900F9008951F96AC
:103810008C91ECCFD6968C91D69790E0880F991F1B
:10382000A80FB91FA750BF4F6D917C91832F922F86
:103830000C94303AFC01ED5BFF4F80816CE00E94FC
:10384000A338682F6150770BAB015F936F93892F7B
:1038500090E0880F991FA80FB91FA350BF4F119672
:103860008C9111978F938C918F938BE49DEB9F9309
:103870008F932F933F930E94373A8DB79EB7089648
:103880008DBF9EBF0895FC01E05BFF4F80816CE01F
:103890000E94A338682F6150770BAB015F936F9341
:1038A000892F90E0880F991FA80FB91FA350BF4F11
:1038B00011968C9111978F938C918F938BE49DEB44
:1038C0009F938F932F933F930E94373A8DB79EB764
:1038D00008968DBF9EBF0895FC01E35AFF4F80817B
:1038E00090E0880F991FA80FB91FA350BF4F9CCF1E
:1038F000FC01E659FF4F808190E0880F991FA80FC7
:10390000B91FAB5EBE4F90CF0895FC01CB01409133
:103910007F295091802942305105A1F13CF4411595
:10392000510561F041305105F9F0089544305105D9
:1039300059F1E4F04530510561F1089527856DE3B3
:103940007DEB2223E9F01F922F9321E43DEB3F937F
:103950002F939F938F930E94373A0F900F900F9061
:103960000F900F900F900895248DE9CF26A930E095
:103970002B593F4F220F331FE20FF31F60817181DC
:103980000C94303A21A5F3CFDF01AD5BBF4F2C91F2
:10399000EECFDF01A05BBF4F2C9130E0245A3F4FA8
:1039A000220F331FE20FF31F21812F9320812F93CA
:1039B00022E53DEBCCCFFC01CB0120917F2930915A
:1039C00080292230310541F13CF42115310561F0A7
:1039D00021303105F9F008952430310519F18CF1C9
:1039E00025303105B1F1089527856DE37DEB222364
:1039F00031F11F922F9321E43DEB3F932F939F933F
:103A00008F930E94373A0F900F900F900F900F9066
:103A10000F900895248DE9CF21A51F922F9322E5C1
:103A20003DEBEBCFDF01AD5BBF4F2C9130E023527C
:103A30003F4F220F331FE20FF31F608171810C94FF
:103A4000303A26A92C50330B3F932F9329E53DEBB9
:103A5000D4CFE05BFF4F20812A50330B3F932F934D
:103A60002DE53DEBCACFFC019B0180917F29909110
:103A700080298230910549F12CF4009759F0019783
:103A800089F008958330910509F443C0049709F43F
:103A900064C008958785811107C06DE37DEBC9017E
:103AA0000C94303A848DF7CF1F928F9381E49DEB75
:103AB0009F938F933F932F930E94373A0F900F90CD
:103AC0000F900F900F900F90089581A56CE00E94C9
:103AD000A338682F6150770BAB015F936F93892FE9
:103AE00090E0845A9F4F880F991FE80FF91F81813A
:103AF0008F9380818F938BE49DEB9F938F933F9364
:103B00002F930E94373A8DB79EB708968DBF9EBF00
:103B1000089586A96CE00E94A338682F6150770B46
:103B2000AB015F936F93892F90E0845A9F4F880F6A
:103B3000991FE80FF91F81818F9380818F938BE408
:103B40009DEB9F938F933F932F930E94373A8DB7AE
:103B50009EB708968DBF9EBF0895DF01AD5BBF4F36
:103B60008C9190E0845A9F4F880F991FE80FF91F9E
:103B700081818F9380818F9383E69DEB99CFDC01C8
:103B8000E0917F29F0918029E830F10518F5CB010B
:103B9000E453F24E0C94D738D41DEB1DFC1DEE1DE2
:103BA000001E051E081E0D1E1F962C916DE37DEB59
:103BB000222301F11F922F9321E43DEB3F932F939A
:103BC0009F938F930E94373A0F900F900F900F9012
:103BD0000F900F9008955C962C91E8CFD6962C917B
:103BE000D69730E0245A3F4F220F331FA20FB31F46
:103BF0006D917C910C94303A99962C919997F1CFD4
:103C0000AD5BBF4F6C910C943C14A05BBF4FFACFDF
:103C1000A35ABF4F6C910C942314FD01E659FF4F3A
:103C2000208130E02D593F4F220F331FA20FB31FC9
:103C300011962C9111972F932C912F9323E63DEB06
:103C4000BDCF0E942B3A0C94A239DF92EF92FF92E3
:103C50000F931F93CF93DF93D82E7A01082F10E094
:103C6000000F111F060F171FF80180819181009727
:103C7000E9F0FC01C081D18122813381F8012083E8
:103C800031830E94A239CC0FDD1FCE0DDF1D88814C
:103C90009981009749F3FC012281D212E5CF24815A
:103CA0003581288339830E94A239F1CFDF91CF91EA
:103CB0001F910F91FF90EF90DF900895AF92BF9208
:103CC000CF92DF92EF92FF920F931F93CF93DF93E8
:103CD000EC0180917F29909180298130910519F51F
:103CE0008B8D8823E9F01C8ECE010E94C414809134
:103CF0007F29909180292DE0289FF001299FF00DC8
:103D00001124EC0FFD1F86858A83DF91CF911F91CF
:103D10000F91FF90EF90DF90CF90BF90AF900895FC
:103D20008A818C8FF2CF9C012250310923303105DA
:103D300060F78330910509F043C019A6FE01ED5BE1
:103D4000FF4F10822DE0289FF001299FF00D1124D4
:103D5000EC0FFD1F968581E0891B87878EA988233C
:103D6000D9F1FE01E253FF4F8081918118161906A7
:103D700054F4DE01A052BC4F2C91222321F0019774
:103D8000808391831C9280819181181619065CF4BE
:103D9000019780839183AE0140525F4FBE01605313
:103DA0007F4F0E94251ECE01DF91CF911F910F9171
:103DB000FF90EF90DF90CF90BF90AF900C94C41421
:103DC0008230910511F41EAAB9CF8430910509F013
:103DD000B9CF1EAA19A6B6CF89A5FE01882391F0F6
:103DE000E253FF4F80819181C052DC4F88309105B2
:103DF00034F42881211103C001968083918381E0EE
:103E0000888383CFED5BFF4F8081882309F47DCFCA
:103E10008E0102531F4FF801808191819E01205233
:103E20003C4F59011816190604F5F9012081222387
:103E300031F00197F80180839183F50110826E01C2
:103E4000F0EECF0ED11C7E0120EDE20EF11CF80148
:103E5000808191811816190644F40197808391831B
:103E6000A601B7010E94251EF2CFF50110829BCF5B
:103E7000CF92DF92EF92FF920F93FC01C12CB9E039
:103E8000DB2EBDE3EB2EF12CC082D182E282F382E5
:103E90001482158281E090E086839783C090012888
:103EA000D0900228E0900328F0900428F694E7943C
:103EB000D794C79490E04C155D056E057F0540F4DE
:103EC000F694E794D794C7949F5F9630A1F797E054
:103ED00004600187892F8095A82FA170B0E084E04D
:103EE000AA0FBB1F8A95E1F791629A2B80E0232BE2
:103EF00009F480E4982B90870F91FF90EF90DF906A
:103F0000CF9008950F931F93CF93DF93CDB7DEB774
:103F10002A97CDBFDEBF8C01FC01878181110CC0C7
:103F200010861186128613861486158616861786C5
:103F3000108A118A81E087838091E305F8019681D8
:103F4000892B8093E30561E070E083810E9405077F
:103F500061E070E0F80184810E9405078091C1084A
:103F600084608093C1088091C00881628093C008FA
:103F70004091282A5091292A60912A2A70912B2A4F
:103F800000912C2A20912E2A30912F2ACE010196C1
:103F90000E94381F99858A859093C0088093C10834
:103FA0002A96CDBFDEBFDF91CF911F910F9108956B
:103FB0005F926F927F928F929F92AF92BF92CF92B9
:103FC000DF92EF92FF920F931F93CF93DF93CDB7C2
:103FD000DEB76297CDBFDEBF3C010B871C872D8704
:103FE0003E87042F4F87588B698B7A8B29893A89B2
:103FF0004B855C856D857E85CE0101960E94381FBC
:1040000019855A84D30118968C91882319F081FF61
:1040100018C0F8941093C0085092C1086296CDBFA2
:10402000DEBFDF91CF911F910F91FF90EF90DF9056
:10403000CF90BF90AF909F908F907F906F905F9048
:10404000089580FFE7CFF30182849384A484B5842C
:10405000C12CD12C7601B0E09401A501B601C701B5
:10406000A0E00E94FA38A9F1217030E040E050E071
:1040700060E070E080E090E00E94FA38E9F090E0C3
:1040800080E0B03370F48B2F869586958695F0E2AC
:104090008F9FC0011124805F9B4F2B2F2770820FB1
:1040A000911DFC01408193012B0F311DF901428BC1
:1040B000FC012081287F20839401A501B601C7015E
:1040C00001E00E94DF3849015A016B017C01BF5FAA
:1040D000C3CFD3011E968D909D90AD90BC9051970B
:1040E000C12CD12C7601B0E29401A501B601C70123
:1040F000A0E00E94FA3809F48DCF217030E040E052
:1041000050E060E070E080E090E00E94FA38E9F072
:1041100090E080E0B03370F48B2F8695869586957D
:10412000E0E28E9FC0011124805F9B4F2B2F2770F0
:10413000820F911DFC01408193012B0F311DF9016C
:10414000428BFC012081287F20839401A501B601C8
:10415000C70101E00E94DF3849015A016B017C016F
:10416000BF5FC2CF2F923F924F925F926F927F922A
:104170008F929F92AF92BF92CF92DF92EF92FF9277
:104180000F931F93CF93DF93EC011B8D112309F441
:10419000B7C02E85222309F4B3C086E0289F900182
:1041A0001124032E000C440B550B60916229709171
:1041B000632980916429909165290E9460366B8300
:1041C0007C83CB0166E070E00E94C338009709F061
:1041D000AAC08DA9FE01EE5BFF4F4F018E01060FB5
:1041E000171F811179C07A962080F4018081845F45
:1041F0008219B796A080B12CBCE0BA9DA001BB9DEE
:10420000500D11249A012A5C34446901F901338468
:104210006B2F0E94A338A82F292F30E0CE01815B9D
:104220009F4FFC018081845F82190E94A338692F0F
:1042300070E07601E60EF71EF7014080839D400C8A
:1042400011244A525544640F751FFB018081481A9E
:10425000512C712C612CF601E20FF31FC080A39D3D
:10426000C00C1124240F351FF9018081C81AD12CEC
:10427000F12CE12CC414D504E604F7048CF44C189A
:104280005D086E087F0841F00E94D635A3019201B7
:104290000E942E362B013C01C40CD51CE61CF71CD9
:1042A0008C2D90E0632D70E00E94C3389C01D801F2
:1042B000A854BF4F9CE09A9DF0019B9DF00D1124E6
:1042C000EA5FF444E20FF31F24EF220E8081280EF0
:1042D000969F200C11242C92F801E854FF4F808106
:1042E000F4019081891760F0FE01E15BFF4F90813E
:1042F000891730F44B8D609100280E949F151D8214
:10430000DF91CF911F910F91FF90EF90DF90CF90B1
:10431000BF90AF909F908F907F906F905F904F90E5
:104320003F902F90089528A52817190649F78D81E9
:104330008111E6CF6C0F7D1FFB01E854FF4F612F09
:1043400080810E94BE1481E08D83DACFCF92DF920C
:10435000EF92FF921F93CF93DF93EC01162F0E94F1
:10436000D635FE01EE5BFF4F20813AE0C32ED12C03
:10437000C21AD1080D2C000CEE08FF082AE030E02C
:1043800040E050E00E942E366C157D058E059F059D
:1043900084F00E94D63525E030E040E050E00E94F5
:1043A0002E36625A7F4F660F771FC60FD71F888140
:1043B000180F812FDF91CF911F91FF90EF90DF9029
:1043C000CF9008954F925F926F927F92BF92CF925B
:1043D000DF92EF92FF920F931F93CF93DF93EC0145
:1043E000BB8CBB2009F48AC08DA9882309F486C040
:1043F000FE01E25AFE4F80819181009709F47EC050
:1044000046E0489F9001499F300D1124032E000C77
:10441000440B550B60916229709163298091642946
:10442000909165290E9460366B837C8306E010E0E2
:10443000CB01B8010E94C338892B09F06DC00E94DE
:10444000D635FE01E15BFF4F4080512C712C612C71
:104450004AE0C42ED12CE12CF12CA70196010E9438
:104460002E3664157505860597050CF455C08B81AD
:104470009C81B8010E94C3388E01005A1E4FD8019A
:104480006D937C93FB01E159FF4FEE0FFF1FEC0F83
:10449000FD1F6081CE010E94A621FE01E759FF4F5A
:1044A0009081890F80933828D801ED91FC91EE0F0F
:1044B000FF1FEC0FFD1FE152FF4F10810E94D63508
:1044C000FE01EE5BFF4F20813AE0432E512C421A51
:1044D0005108052C000C66087708A70196010E9478
:1044E0002E3664157505860597050CF016954B2D2F
:1044F000612F809138280E949F151D82DF91CF91F6
:104500001F910F91FF90EF90DF90CF90BF907F9021
:104510006F905F904F9008958B819C8166E070E072
:104520000E94C338FE01E45AFF4F20812817190664
:1045300029F78D818111E2CF6B2D809138280E945F
:10454000BE1481E08D83DACF8F929F92AF92BF929B
:10455000CF92DF92EF92FF920F931F93CF93DF934F
:10456000EC01DB8CDD2071F18E8586132BC08DA9CB
:10457000811128C0622F842F7E0192EAE91A9EEFF2
:10458000F90AD701ED91FC9198A5992341F1E03406
:10459000F105A4F4DF01A159BF4FAA0FBB1FAC0F57
:1045A000BD1F8C93DF01AA0FBB1FAC0FBD1FA15213
:1045B000BF4F2C933196D701ED93FC934D2D0E9464
:1045C0009F151D82DF91CF911F910F91FF90EF906A
:1045D000DF90CF90BF90AF909F908F900895EF2B7A
:1045E00069F38E01005A1E4FD801ED91FC91E159FB
:1045F000FF4FEE0FFF1FEC0FFD1F6081CE010E94E9
:10460000A621FE01E759FF4F9081890F809338283A
:10461000D801ED91FC91EE0FFF1FEC0FFD1FE15251
:10462000FF4FC0800E94D635FE01EE5BFF4F208118
:104630003AE0832E912C821A9108092C000CAA08CA
:10464000BB082AE030E040E050E00E942E366815BA
:1046500079058A059B050CF0C6944D2D6C2D809133
:1046600038280E949F15F801808191810196D70119
:104670006D917C910E94C33880839183A2CFCF92A9
:10468000DF92EF92FF920F931F93CF93DF9380916E
:104690006729882309F47AC0C9EFDCE2F12CE12C08
:1046A0008091B72C9091B82CE816F9066CF489919A
:1046B0009991DC01ED91FC910280F381E02D099547
:1046C000BFEFEB1AFB0AECCF10926629C09062296B
:1046D000D0906329E0906429F0906529C114D10439
:1046E000E104F10421F50E9482076093302A70935F
:1046F000312A8093322A9093332A8FEFC81AD80A2E
:10470000E80AF80AC0926229D0926329E0926429EB
:10471000F092652968EF82EB9AE2DF91CF911F91C9
:104720000F91FF90EF90DF90CF900C940218C7018B
:10473000B60128E130E040E050E00E946036672B8F
:10474000682B692BD1F60E9482070091302A1091C4
:10475000312A2091322A3091332A601B710B820B4F
:10476000930B0E949F379B01AC0160EC71EE84E6D5
:104770009CE40E94FE360E943238609305287093B4
:1047800006288093072890930828ADCFDF91CF911A
:104790001F910F91FF90EF90DF90CF9008951F929F
:1047A0000F920FB60F9211242F933F934F935F9365
:1047B0006F937F938F939F93AF93BF934091732990
:1047C0005091742960917529709176298091712991
:1047D0009091722920916F2930917029420F531FB7
:1047E000611D711D20916D2930916E29820F931FDB
:1047F000883E23E0920730F0885E93404F5F5F4F22
:104800006F4F7F4F80937129909372294093732942
:1048100050937429609375297093762980917B2930
:1048200090917C29A0917D29B0917E290196A11DAE
:10483000B11D80937B2990937C29A0937D29B0930F
:104840007E2981E08093860ABF91AF919F918F91DD
:104850007F916F915F914F913F912F910F900FBE7C
:104860000F901F9018951F920F920FB60F92112460
:104870002F933F934F935F936F937F938F939F9368
:10488000AF93BF93EF93FF9388E59BE20E9483056C
:10489000FF91EF91BF91AF919F918F917F916F9118
:1048A0005F914F913F912F910F900FBE0F901F90EE
:1048B00018951F920F920FB60F9211242F933F93CA
:1048C0004F935F936F937F938F939F93AF93BF9318
:1048D000EF93FF9388E59BE20E947708FF91EF91A9
:1048E000BF91AF919F918F917F916F915F914F9108
:1048F0003F912F910F900FBE0F901F9018951F9210
:104900000F920FB60F9211242F933F934F935F9303
:104910006F937F938F939F93AF93BF93EF93FF9387
:1049200081E899E20E948305FF91EF91BF91AF91D9
:104930009F918F917F916F915F914F913F912F91B7
:104940000F900FBE0F901F9018951F920F920FB6E9
:104950000F9211242F933F934F935F936F937F9305
:104960008F939F93AF93BF93EF93FF9381E899E267
:104970000E947708FF91EF91BF91AF919F918F9126
:104980007F916F915F914F913F912F910F900FBE4B
:104990000F901F9018951F920F920FB60F9211242F
:1049A0002F933F934F935F936F937F938F939F9337
:1049B000AF93BF93CF93EF93FF93C091AB08C2FF28
:1049C0000AC010925529109254291092532984E05C
:1049D0000E94FB0814C0C6FF2FC08091522981306D
:1049E00051F480915529E0915029F091512990E09E
:1049F000099510925229C0FF14C00E940B09FF9123
:104A0000EF91CF91BF91AF919F918F917F916F91D6
:104A10005F914F913F912F910F900FBE0F901F907C
:104A2000189580E48093AB0881E00E94FB08809198
:104A3000AB0885FFE4CFE1CFC7FF5CC0C3FF08C070
:104A400010925529109254291092532983E0C0CF17
:104A50008091A90880668093A9088091AB0881FFA6
:104A60002CC080915429882349F08091AB0884FFA1
:104A700005C082E08093AA0881E0AACF90915429D2
:104A8000809153299817A8F4E091542980914B29DB
:104A900090914C29E80FF92FF11D80818093AD088A
:104AA000809154298F5F8093542983E08093AA08D2
:104AB000A6CF82E08093AA088BCF90915529809150
:104AC0004F29981790F48091AD08E09155292091D5
:104AD0004D2930914E29E20FF32FF11D80838091F3
:104AE00055298F5F80935529E0CF86E08093AA08EF
:104AF00082E06ECF85E06CCF1F920F920FB60F92BF
:104B000011242F933F938F939F93EF93FF93809163
:104B1000A508982F9C70E1F08091A50894E082FF91
:104B200093E0909360298093A50881E090E08093C2
:104B300056299093572910926129FF91EF919F91E7
:104B40008F913F912F910F900FBE0F901F9018954E
:104B500086FF4EC020915D2990915C298091A50827
:104B600084FF15C080915929882379F083E08093D0
:104B7000A40885E0809360291092612981E090E08B
:104B80008093562990935729D8CF81E0F0CF809118
:104B90005B29821790F4E0915B2980915E299091C6
:104BA0005F29E80FF92FF11D80818093A80880917B
:104BB0005B298F5F80935B29C0CF80915A29891729
:104BC00060F484E090E08093562990935729809177
:104BD000582981608093A708B0CF809159298823F4
:104BE00029F083E08093A40881E0C4CF81E0FACF6C
:104BF00087FF40C090915A2980915C299817D8F47A
:104C00008091A808E0915A292091492930914A2998
:104C1000E20FF32FF11D808380915A298F5F8093DB
:104C20005A2990915C2980915A298917D8F482E0F9
:104C30008093A40882CF80915929882389F087E046
:104C40008093A40882E0809360291092612981E01A
:104C500090E0809356299093572910925C296DCF4C
:104C600085E0EECF80915929882311F087E0BACFF3
:104C700085E0B8CF86E07ECFEF92FF920F931F932F
:104C8000CF93DF93FC01E259FF4FC081D1819C019A
:104C900050E040E070E060E06C177D07DCF48901D3
:104CA000081B190BF901E758FF4F7A01A3E7EA1A2D
:104CB000F108DF01A01BB10BAE0DBF1DAC91AA2303
:104CC00011F0A193F6CF6F5F7F4F285F3F4F435F97
:104CD0005F4FE2CFDF91CF911F910F91FF90EF9047
:104CE0000895CF93DF93EC0184EC9AEB888399834A
:104CF000CE0180599F4F0E94303A1B821C82FE01D8
:104D000081E016861786108A118A828B3D968F5F06
:104D10008930B9F7FE01E858FF4FC954DF4F80E2F0
:104D20008193EC17FD07E1F71082DF91CF91089591
:104D30007F928F929F92AF92BF92CF92DF92EF922B
:104D4000FF920F931F93CF93DF9310925A2B1092E1
:104D50005B2B88EE93E0A0E0B0E080935C2B909317
:104D60005D2BA0935E2BB0935F2B23E43CEB209351
:104D7000582B3093592B40E258E04093642B5093CA
:104D8000652B1092662B41E04093672B44E04093E3
:104D9000682B10926A2B10926B2B10926C2B109236
:104DA0006D2B4BE140936E2B10926F2B1092702B5A
:104DB0001092F12B1092F22B1092832910928429D9
:104DC0008093852990938629A0938729B093882979
:104DD000209381293093822920E638E020938D2981
:104DE00030938E2928E120938F2929E1209390295F
:104DF00020E42093912910929329109294291092E3
:104E000095291092962926E22093972910929829A5
:104E10001092992910921A2A10921B2A10921E2A77
:104E200010921F2A8093202A9093212AA093222A4D
:104E3000B093232A8DE59CEB80931C2A90931D2A26
:104E400080E099E0ADE3B0E08093282A9093292A8E
:104E5000A0932A2AB0932B2A10922C2A10922D2A42
:104E600081E090E080932E2A90932F2A0E9482075F
:104E70006093382A7093392A80933A2A90933B2A78
:104E80002091052830910628409107285091082844
:104E900060E876E988E19AE40E94FE360E94703765
:104EA0006093342A7093352A8093362A9093372A58
:104EB0000E9482076093302A7093312A8093322AAD
:104EC0009093332A10923E2A10923F2A1092742A0D
:104ED0001092752A85E89CEB80933C2A90933D2A9A
:104EE0001092402A1092412A1092552A1092582A64
:104EF00010924C2A10924D2A10924E2A10924F2A4C
:104F00008FEF8093562A80935A2AEEE5FAE2CFEF8C
:104F1000C1938AE2E437F807D9F78CE39DE08093E8
:104F2000442A9093452A81E39EE08093462A9093F9
:104F3000472A83EB9FE08093482A9093492A8DEF7C
:104F40009FE080934A2A90934B2A30E020E040E093
:104F500069E080E49AE20E943C0DC093692AC09304
:104F60006A2AC0936B2A1092B72C1092B82C109218
:104F7000762A1092772A8EE38093B92CEAEBFCE232
:104F800080E281939CE2E83FF907D9F71092F82C70
:104F9000E5E3FCE280E28193ACE2E437FA07D9F77B
:104FA0001092742C80EA90E08093502A9093512ABA
:104FB00088E59BE28093F32B9093F42B1092882A40
:104FC0001092892A10928A2A10928B2A10928C2A87
:104FD00010928D2A10928E2A10928F2A1092902A67
:104FE0001092912A1092922A1092932A1092942A47
:104FF0001092952A1092962A1092972A1092982A27
:105000001092992A10929A2A10929B2A10929C2A06
:1050100010929D2A10929E2A10929F2A1092A02AE6
:105020001092A12A1092A22A1092A32A1092A42AC6
:105030001092A52A1092A62A1092A72A1092A82AA6
:105040001092A92A1092AA2A1092AB2A1092AC2A86
:105050001092AD2A1092AE2A1092AF2A1092B02A66
:105060001092B12A83EF9BE28093B22A9093B32AE5
:105070001092B42A1092B52A1092B62A1092BA2A27
:105080001092BB2A1092BC2A1092BD2A8FEF9FEF7C
:105090008093BE2A9093BF2A8093C02A9093C12AFE
:1050A00083E08093C22A1092C32A1092C42A1092DD
:1050B000C52A1092C62A1092472BE7ECFAE280E844
:1050C000DF011D928A95E9F710924A2B10924B2B23
:1050D00010924C2B10924D2B10924E2B10924F2B66
:1050E0001092502B1092512B1092522B1092532B46
:1050F0001092542B1092552B1092562B1092572B26
:1051000080ED90E00E940639EC0167E67DEB0E949D
:1051100071268BE29DEB88839983DE01A854BF4FF3
:1051200088E1E6E1FAEB01900D928A95E1F763E7F9
:105130007DEBCE0106960E94303A00E1098B6EE6C7
:105140007DEBCE0143960E94303A0E8F62E77DEBF5
:10515000CE0180960E94303A65E1A62EA9A6A8A6A7
:10516000AAA67CE6B72EBBA666E77DEBCE018D96A0
:105170000E94303ABEAABDAAAFAAB8AE6AE77DEBDC
:10518000CE01CA960E94303AFE01EB5BFF4F8BE0E6
:105190008083B99685E090E08083918311E01D8340
:1051A0008B8D8A83CE010E943C26C093862AD093A1
:1051B000872A86EF91E00E940639EC016EE77DEBCD
:1051C0000E94712685E19DEB88839983DE01A654B8
:1051D000BE4F84E1EEE2FAEB01900D928A95E1F781
:1051E000DE01A253BE4F88E2E2E4FAEB01900D9299
:1051F0008A95E1F763E77DEBCE0106960E94303A8F
:10520000098B6EE67DEBCE0143960E94303A0E8FFD
:1052100064E87DEBCE0180960E94303A19A718A76A
:1052200083E08BA76BE87DEBCE01CA960E94303AF3
:10523000FE01ED5BFF4F84E08083319780833396DE
:1052400088E0808360E97DEBCE01895B9F4F0E94FF
:10525000303AFE01E05BFF4F8AE080833197808324
:1052600032961082319684E1808365E97DEBCE0130
:105270008D960E94303A8CE08EAB8DAB1FAAE8E190
:105280009E2E98AEFE01E259FF4F86E090E08083AB
:1052900091831D83CE010E943C26FE01E854FE4FFF
:1052A0001082319610828B8D8A83C093842AD0938A
:1052B000852A88ED90E00E940639EC016BE97DEBD0
:1052C0000E9471268FEF9CEB88839983FE01E8543E
:1052D000FF4F80916ABA90916BBAA0916CBAB0916D
:1052E0006DBA80839183A283B3833496C0906EBAE3
:1052F000D0906FBAE09070BAF09071BAC082D1824B
:10530000E282F382DE01A054BF4FE6E1FAEB892D81
:1053100001900D928A95E1F760EA7DEBCE01069649
:105320000E94303A1F861E86198B6EE67DEBCE01F9
:1053300043960E94303A0E8F66EA7DEBCE0180964E
:105340000E94303A88E789A788A78EE18AA780EF74
:105350008BA76AEA7DEBCE018D960E94303A86E0FB
:1053600088AF6EEA7DEBCE01CA960E94303AFE010C
:10537000ED5BFF4F80E380833197808364EB7DEBAF
:10538000CE01895B9F4F0E94303AFE01E05BFF4FE8
:1053900084E28083319780833296A0823D97A082F9
:1053A0003E96B0823D97B08269EB7DEBCE018C5A80
:1053B0009F4F0E94303AFE01E15AFF4F108360EC8C
:1053C0007DEBCE018F599F4F0E94303AFE01E55987
:1053D000FF4F108231968FE78083329784E6808377
:1053E000349688E090E0808391831D83CE010E94F3
:1053F0003C268B8D8A83C093822AD093832A86EDA4
:1054000090E00E940639EC0167EC7DEB0E9471266A
:1054100089EE9CEB88839983DE01A854BF4FE2E7B5
:10542000FAEB01900D929A94E1F76DEC7DEBCE01D1
:1054300006960E94303A85E0898B6EE67DEBCE01C0
:1054400043960E94303A0E8F64ED7DEBCE0180963C
:105450000E94303A6BED7DEBCE018D960E94303A82
:1054600062EE7DEBCE01CA960E94303A69EE7DEB8A
:10547000CE01895B9F4F0E94303A60EF7DEBCE01F9
:105480008C5A9F4F0E94303AFE019E012F5B3F4F86
:105490008CE345E19CE681A780A742A793A73D96B0
:1054A000E217F307C1F767EF7DEBCE018F599F4FEE
:1054B0000E94303AFE01E659FF4F11E01083319708
:1054C000108332961083319600E10083329648E0D3
:1054D000A42EB12CA082B1821D83CE010E943C2655
:1054E0008B8D8A83FE01E053FF4F1083319610832A
:1054F000319610833196108331961083C093802AA1
:10550000D093812A82E691E00E940639EC016DEF8A
:105510007DEB0E94712683ED9CEB88839983FE01CD
:10552000E854FF4FC082D182E282F382DE01A454AC
:10553000BF4F8AE0EAE8FAEB01900D928A95E1F715
:10554000DE01AA53BF4F88E1E6E1FAEB01900D922C
:105550008A95E1F763E77DEBCE0106960E94303A2B
:10556000098B6EE67DEBCE0143960E94303A0E8F9A
:1055700064E07EEBCE018D960E94303A18AF69E070
:105580007EEBCE0180960E94303A1BA760E17EEB55
:10559000CE01CA960E94303AFE01EB5BFF4F5AE003
:1055A000952E908267E17EEBCE01895B9F4F0E9432
:1055B000303AFE01EE5AFF4F90826CE17EEBCE0155
:1055C0008C5A9F4F0E94303AFE01E35AFF4F83E00E
:1055D000808331978083339685E080833197108371
:1055E0006AE77DEBCE018F599F4F0E94303AFE0152
:1055F000E459FF4F8BE080833296A082B182E05164
:10560000FF4F108211821D838B8D8A83CE010E94F1
:105610003C26C0937E2AD0937F2A81E694E00E94A4
:105620000639EC0161E27EEB0E9471268DEB9CEB6A
:1056300088839983DE01A854BF4F82E1E4E9FAEB45
:1056400001900D928A95E1F7FE01E653FF4FC0826B
:10565000D182E282F38263E77DEBCE0106960E945F
:10566000303A098B6EE67DEBCE0143960E94303ACC
:105670000E8F69E07EEBCE0180960E94303A1BA728
:1056800068E27EEBCE018D960E94303A18AF6DE253
:105690007EEBCE01CA960E94303AFE01EB5BFF4FD3
:1056A00010836DEC7DEBCE01895B9F4F0E94303AF9
:1056B000FE01E05BFF4F84E0808331978083339667
:1056C00088E080837C9686E090E0808391831D83D0
:1056D000CE010E943C261B821C82FE01E253FF4F3A
:1056E00010821182DE01A052BC4F1C927296119260
:1056F0001192AE17BF07D9F7FE01E053FF4F10829A
:105700001182329610821182329610821182329664
:10571000108211823296108211823296108211828A
:10572000329610821182329610821182ED5FFC4F08
:10573000CE018F599B4F11928E179F07E1F78B8DEA
:105740008A83C0937C2AD0937D2A85EE90E00E94C4
:105750000639EC0164E37EEB0E94712687EA9CEB3C
:1057600088839983DE01A854BF4F88E1E6E1FAEB14
:1057700001900D928A95E1F7DE01A053BF4F82E1BF
:10578000E6EAFAEB01900D928A95E1F76DEC7DEB7C
:10579000CE0106960E94303A86E08F878E8788E099
:1057A000782E798A6EE67DEBCE0143960E94303AE0
:1057B00010E11E8F6BE37EEBCE0180960E94303AA3
:1057C0009CE3B92EB9A6B8A625E1922E9AA60CE6BE
:1057D0000BA761E47EEBCE018D960E94303ABEAA03
:1057E000BDAA9FAA08AF67E47EEBCE01CA960E94CD
:1057F000303AFE01EB5BFF4F10836EE47EEBCE018F
:10580000895B9F4F0E94303AFE01EE5AFF4F108392
:1058100065E57EEBCE018C5A9F4F0E94303AFE0127
:10582000E15AFF4F10836CE57EEBCE018F599F4FFD
:105830000E94303AFE01E459FF4F1083329638E05F
:10584000A32EB12CA082B182882483948D82CE01B4
:105850000E943C26FE01ED51FF4FDE01AE5BBF4FC3
:105860008C91808331961D968C9180838B8D8A8359
:10587000C0937A2AD0937B2A8DE191E00E94063969
:10588000EC0163E67EEB0E94712681E99CEB888344
:105890009983FE01E750FF4FC082D182E282F382FA
:1058A000DE01A350BF4F88E1E2E7FAEB01900D92D1
:1058B0008A95E1F7DE01AB5EBE4FE8EBFAEB0190B3
:1058C0000D927A94E1F76DEC7DEBCE0106960E9485
:1058D000303A80E4898B6EE67DEBCE0143960E94E0
:1058E000303A1E8F6CE17EEBCE0180960E94303AFA
:1058F00013E019A718A78AA685E08BA76AE67EEBB6
:10590000CE018D960E94303A88AE62E77DEBCE01E3
:10591000CA960E94303AFE01ED5BFF4F80E3808320
:1059200031978083329690823196008366E77DEBD3
:10593000CE01895B9F4F0E94303AFE01E05BFF4F32
:1059400088E48083319780833296908231960083F9
:105950006AE77DEBCE018C5A9F4F0E94303AFE01E0
:10596000E15AFF4F8BE0808361E77EEBCE018F59D8
:105970009F4F0E94303AFE01E459FF4F1083329648
:10598000A082B1828E0108541F4FCE0188509F4FD4
:10599000F80111928F01E817F907D1F781E08D83A3
:1059A000CE010E943C268B8DD8018C93C093782A1F
:1059B000D093792ADF91CF911F910F91FF90EF90B3
:1059C000DF90CF90BF90AF909F908F907F90089581
:1059D000CF93DF93CDB7DEB76197CDBFDEBF88ED44
:1059E00090E084BF9093610080E094E2A4EFB0E087
:1059F0008093012890930228A0930328B093042851
:105A00008091020686608093020680910006816084
:105A100080930006809102068F7C8093020680911D
:105A2000A0008F788093A00080910206806180930F
:105A300002061092E20581E08093E40583E0809302
:105A4000010A8FEF90E08093260A9093270A80E85E
:105A500090E08093380A9093390A80933A0A9093A1
:105A60003B0A80933C0A90933D0A8BE08093000AA6
:105A70008091E50581608093E5058091E505826070
:105A80008093E505E0E8FAE037E02FEF90E885E065
:105A900031832487958780837096E03C4AE0F40741
:105AA000B9F780E094E08093792990937A298091E6
:105AB000792990917A292FEF30E0B9010E94AF380F
:105AC00060937729709378298091792990917A2928
:105AD000E8EEF3E0BF010E94AF3860936F29709346
