:100000000C9477030C949F030C949F030C949F0310
:100010000C949F030C949F030C949F030C949F03D8
:100020000C949F030C949F030C949F030C949F03C8
:100030000C9406210C949F030C9402220C94B3227E
:100040000C949F030C94DC210C94B6210C949F0318
:100050000C949F030C949F030C949F030C949F0398
:100060000C949F030C949F030C949F030C949F0388
:100070000C949F030C949F030C949F030C94902169
:100080000C946A210C949F030C949F030C949F037F
:10009000000000000000000000000000000001015E
:1000A0000100000002030000000001000001020343
:1000B0000405060703000102000102030203040510
:1000C000040506070505000000000000000002020C
:1000D00002020303030305050505030303030201ED
:1000E00001020408102040800801020401020408F3
:1000F0000408102010204080207E01020000000033
:10010000000000000000000000000000F0000000FF
:10011000000000003F00000000000000F0F00000C0
:10012000000000003F3F0000000000000080F08061
:10013000F080000000043F043F040000F0F0F0F005
:10014000000000003F3F3F3F00000000F0F0F0F0F3
:10015000F00000003F3F3F3F3F000000F0F0F0F0B4
:10016000F0F000003F3F3F3F3F3F0000F0F0F0F075
:10017000F0F0F0003F3F3F3F3F3F3F000000806016
:100180001008000000000F304080000000081060E0
:1001900080000000008040300F000000008000C0A0
:1001A000008000000008051F05080000000000C0D6
:1001B000000000000002021F020200000000000018
:1001C000000000000000907000000000000000002F
:1001D0000000000000020202020200000000000015
:1001E00000000000000020702000000000000080DF
:1001F00060180000C0300C0300000000C020101088
:1002000020C000000F102020100F0000004020F040
:10021000000000000020203F20200000601010108F
:1002200010E000002030282423200000101010903F
:100230005030000018202121211E00000000C020A5
:10024000F00000000C0B08083F080000F0909090B0
:100250009010000019202020201F0000C020101046
:10026000100000001F222121211E0000101010107C
:10027000D030000000300C0300000000609010102F
:10028000906000001C222121221C0000E0101010B0
:1002900010E0000019222222110F0000000080C08F
:1002A0008000000000001039100000000000808075
:1002B000000000000000493900000000000000803C
:1002C000402000000002050810200000808080808F
:1002D000808000000404040404040000F0E0C080F6
:1002E000000000007F3F1F0F070200006010101089
:1002F000906000000000003700000000C020905017
:1003000050E000000F102728282F0000C0201010F8
:1003100020C000003F020202023F0000F010101057
:10032000A04000003F212121120C0000E01010101D
:10033000106000001F20202020180000F010101076
:1003400020C000003F202020100F0000F0101010EF
:10035000101000003F21212120200000F01010107B
:10036000101000003F01010100000000E01010101B
:10037000106000001F202022123E0000F00000004C
:1003800000F000003F010101013F0000001010F0EB
:10039000101000000020203F20200000000000106E
:1003A000F0100000182020201F000000F000804006
:1003B000201000003F01020408300000F00000009F
:1003C000000000003F20202020200000F0608080FE
:1003D00060F000003F000101003F0000F0C000009D
:1003E00000F000003F0001020C3F0000E010101080
:1003F00010E000001F202020201F0000F01010102F
:1004000010E000003F02020202010000E0101010A4
:1004100010E000001F242428709F0000F01010102E
:1004200010E000003F0202060A310000E010101048
:100430001060000018212122221C0000101010F072
:10044000101010000000003F00000000F00000004D
:1004500000F000001F202020201F0000F0000000FE
:1004600000F00000000738380700000000F000002E
:1004700000F00000001F201C201F000030C0000002
:10048000C0300000300C03030C300000007080000E
:10049000807000000000013E01000000101010906C
:1004A00050300000302C2221202000000000F808ED
:1004B000080800000000FF808080000018608000B5
:1004C000000000000000030C30C000000008080815
:1004D000F800000000808080FF0000002010080865
:1004E00010200000000000000000000000000000DC
:1004F00000000000808080808080000000000810E4
:10050000200000000000000000000000008080804B
:100510008000000019242424243F0000F000808083
:10052000800000003F112020201F000000808080FC
:10053000800000001F20202020110000008080800B
:1005400000F000001F202020113F0000008080806C
:10055000800000001F242424241700000000E01065
:100560001020000001013F01010000000080808098
:10057000008000006798A8A8A7400000F0008080D5
:10058000800000003F010000003F0000000080B03C
:10059000000000000020203F20200000000000009C
:1005A00080B0000000608080807F0000F0000000CC
:1005B000800000003F04060910200000000010F039
:1005C000000000000020203F20200000008080006C
:1005D00080000000003F001F003F0000800080807E
:1005E000800000003F010000003F0000008080808C
:1005F000800000001F202020201F0000800080803D
:1006000080000000FF112020201F0000008080805B
:10061000008000001F20202011FF0000800080804B
:10062000800000003F010000000300000080808087
:100630008000000011222424281100008080F08016
:100640008000000000001F2020100000800000003B
:10065000008000001F202020103F000000800000CC
:100660000080000000030C300C030000008000003C
:1006700000800000001F201E201F000080000000DE
:1006800000800000310A04040A31000080000000EC
:10069000008000004F909090887F000080808080D4
:1006A0008080000020302C2221200000000000F07B
:1006B000080800000000027D80800000000000F8B3
:1006C00000000000000000FF00000000000808F02B
:1006D000000000000080807D020000003008102033
:1006E000403000000000000000000000CF23112473
:1006F0001FBECFEFCDBFDFE3DEBF18E2A0E0B8E260
:10070000E8E4F9E702C005900D92A431B107D9F7EA
:100710002DE2A4E1B8E201C01D92A336B207E1F7D1
:1007200013E0C7E7D3E004C02197FE010E947636AC
:10073000C637D107C9F70E94812A0C947F3A0C94DE
:10074000000080E0089520910D2D30910E2D28306D
:10075000310514F5F901EE0FFF1FE15BF24D8083C7
:100760009183DC01A059BF4FF90153E0EE0FFF1F49
:100770005A95E1F7E05FF24D89589F4F4D91442320
:1007800029F0A817B90711F04193F8CF2F5F3F4F19
:1007900020930D2D30930E2D08951F93CF93DF934B
:1007A000CDB7DEB72597CDBFDEBF1C8221E02B83FE
:1007B00089839A83E091982AF091992A11891D8260
:1007C000A091982AB091992AE0919C2AF0919D2AB3
:1007D0009E012F5F3F4F50964C916FE088E99AE25F
:1007E00009958D818F5F8D83811750F32596CDBF3D
:1007F000DEBFDF91CF911F910895E091E02AF09143
:10080000E12A309719F08BE19BE2099580911C2B2E
:10081000823F09F4BAC090F5803C09F499C0B8F45D
:10082000803909F44FC040F4E091E42AF091E52AC0
:10083000803809F44BC00895803A09F484C0E091EF
:10084000EA2AF091EB2A803B09F440C00895803EEB
:1008500009F462C040F4E091EE2AF091EF2A803D65
:1008600009F47AC00895803F09F47DC0E091F42A2C
:10087000F091F52A813F09F49BC008958A3FC1F1A8
:10088000A8F4863F09F499C040F4E091F82AF09169
:10089000F92A833F09F48CC00895883F09F1E0915B
:1008A000002BF091012B893FF9F008958C3F51F115
:1008B00020F18E3F61F1E091082BF091092B8F3FE1
:1008C00099F00895E091E62AF091E72A309709F42B
:1008D00079C040911E2B60911D2B80911B2B099498
:1008E000E091FC2AF091FD2A309709F46BC009943D
:1008F000E091FE2AF091FF2AF7CFE091022BF091D0
:10090000032BF2CFE091042BF091052BEDCFE0917A
:10091000062BF091072BE8CFE091F02AF091F12A15
:10092000309709F44FC060911E2B20E8629FB00100
:10093000112460787F7380911D2B8F77682B705204
:1009400080911B2B0994E091E82AF091E92ABECF0F
:10095000E091EC2AF091ED2A3097A1F160911D2BE6
:1009600080911B2B0994E091F22AF091F32A3097A1
:1009700049F160911D2B70911E2B6138710510F0AB
:1009800060E870E08FE19BE20994E091F62AF09133
:10099000F72A3097B9F080911E2B20E8829FC00182
:1009A000112480789F7320911D2B2F77822B09941F
:1009B000309741F080911D2B0994E091FA2AF09133
:1009C000FB2A92CF0895CF93DF93CDB7DEB7289758
:1009D000CDBFDEBFDC01ED91FC910190F081E02DF7
:1009E000BE016F5F7F4F099520917F29309180294B
:1009F000A90183E0440F551F8A95E1F7FE01319666
:100A0000DA01A45BB34D90E080E0619161110CC00C
:100A100060E201968730910561F0FA01E80FF91F55
:100A2000E55BF34D6083F5CF6D93019686309105BC
:100A300061F7220F220F220F81E0820F80930B2D8E
:100A4000295F20930C2D2896CDBFDEBFDF91CF917B
:100A5000089520917F2930918029B90133E0660FF4
:100A6000771F3A95E1F7FB01E758FF4FE80FF91FB1
:100A700041E050E08191DA01A60FB71FA55BB34DAD
:100A80008C934F5F5F4F47305105A1F7220F220F24
:100A9000220F81E0820F80930B2D295F20930C2D74
:100AA00008959B01DC011896ED91FC9141E067E10E
:100AB0000994FC0154894589252F30E0842F90E06A
:100AC000821B930B541710F0CF9608950197089549
:100AD000FC0192898389981761F0A389AE0FBF2F1B
:100AE000B11D59968C9193899F5F9F73938B90E072
:100AF00008958FEF9FEF0895FC01928983899817DD
:100B000031F08389E80FF11D818D90E008958FEF1A
:100B10009FEF0895FC0192892389892F90E0805CE2
:100B20009F4F821B91098F7399270895CF93DF936D
:100B3000EC01E881F9810284F385E02D0995EC85CB
:100B4000FD8586818F738683EC85FD8585818F7514
:100B500085838B898A8B198ADF91CF910895CF93F2
:100B6000DF93FC0194898589C485D585981306C0D7
:100B70008D818F7D8D83DF91CF910895A589AE0FF3
:100B8000BF2FB11DA75ABF4F2C91858990E00196C8
:100B90008F739927858B80E48C83A485B585129605
:100BA0002C93A485B58514968C91149785FFFBCF63
:100BB000948985899813DFCF15968C9115978F7D31
:100BC00015968C9387898823B1F2808D80931301C9
:100BD000178AD1CFEF92FF920F931F93CF93DF939A
:100BE000EC0181E0898B9C898D8998131CC0AC85B0
:100BF000BD8514968C91149785FF15C012966C9341
:100C0000AC85BD8580E414968C93EC85FD8585814B
:100C10008F7D858381E090E0DF91CF911F910F91CF
:100C2000FF90EF9008958091110180FF08C080919E
:100C30001301888F8E898093130181E08F8BF62EAC
:100C40000C8910E00F5F1F4F0F731127E02E8D8965
:100C50008E110CC00FB607FE05C0EC85FD858581A1
:100C600085FDF5CFCE010E94AF05F1CFEC89EC0FE9
:100C7000FD2FF11DE75AFF4FF0820C8BEC85FD85AF
:100C800085818062C6CFCF93DF93FC012189222327
:100C9000F9F0EC018091110180FF08C080911301EF
:100CA000808F86898093130181E0878BEC85FD8599
:100CB000858185FD03C0848186FD0AC00FB607FECD
:100CC00003C0858185FDF2CFCE010E94AF05EECF36
:100CD000DF91CF91089581E899E20E948A0521E091
:100CE000892B09F420E0822F089580EB9BE20E947B
:100CF0008A0521E0892B09F420E0822F089580E005
:100D000090E0892B29F00E946B0681110E9400005F
:100D100080E090E0892B29F00E94750681110C94E7
:100D20000000089590E0FC01E252FF4F24912F3F14
:100D300011F1FC01EC53FF4FA49130E2A39FD001CD
:100D40001124BC5F6130710519F411962C9308953C
:100D5000FC01E655FF4FE491EF3F71F0CD01409665
:100D6000E80FF92FF11D9FB7F89412962C9380810C
:100D7000886080839FBF0895F0E0E0E0F4CF90E0CA
:100D8000FC01E057FF4FE491EE2321F1E13021F027
:100D900008F1E630B0F0089586559F4FFC0184912C
:100DA0004091010A8C5F21E030E0B90102C0660F7A
:100DB000771F8A95E2F7CB01809584238093010AFF
:100DC000089570E1E79FF0011124E05AF54F818109
:100DD0008F7E81830895FF920F931F93CF93DF93AC
:100DE000C82FD0E0FE01E252FF4FF4909FEFF916BA
:100DF000B1F08B018A3110F40E94BF06FE01EC5362
:100E0000FF4FA49180E2A89FD0011124BC5F8C9178
:100E10008F21A1F00115110541F41696FC92DF9186
:100E2000CF911F910F91FF9008950230110519F491
:100E30001796FC92F4CF1596FC92F1CFFE01E65581
:100E4000FF4FE491109779F0EF3F69F05096EA0F69
:100E5000FB2FF11D9FB7F8948081012B39F4877F18
:100E600080839FBFDCCFF0E0E0E0F4CF8860F8CF74
:100E70001F93CF93DF93C82FD0E0FE01E252FF4FC4
:100E800014911F3FB9F08A3110F40E94BF06CC5371
:100E9000DF4FFE01C491F0E2CF9FE0011124DC5F3F
:100EA000E885E12381E090E009F480E0DF91CF91D3
:100EB0001F91089580E090E0F9CF8A3110F40C94EE
:100EC000EB0608958A3110F40C94920608958F92DF
:100ED0009F92AF92BF92EF92FF920F931F93CF9387
:100EE000DF93EC014A015B01E22E8989882339F006
:100EF000E881F9810088F189E02DCE010995988972
:100F00008091E205892B8093E205FFB6F894609109
:100F1000012870910228809103289091042823E0F1
:100F2000660F771F881F991F2A95D1F7A501940195
:100F30000E94FF332F5F3F4F4F4F5F4F56954795AE
:100F400037952795EC85FD8586818D7F8683EC8599
:100F5000FD8586818683198A80912311E82F880F69
:100F6000FF0BDF01BC5F0E94F7330C851D85AF01CD
:100F7000F7FF03C051954195510920E034E0241B4F
:100F8000350B032E000C440B550B0E94CD33F8019A
:100F900020873187EC85FD85E782EC85FD8586819C
:100FA000806C8683EC85FD858581806885838E8550
:100FB00062E070E00E9462078F8561E070E00E944D
:100FC0005D078F8561E070E00E946207FFBEDF91E0
:100FD000CF911F910F91FF90EF90BF90AF909F9096
:100FE0008F900895CF93DF938FB7F89420917B294A
:100FF00030917C2940917D2950917E29E0918A0A87
:101000009091860A90FF06C02F5F3F4F4F4F5F4F72
:10101000E0918A0A8FBFA0917929B0917A29C09175
:101020007729D09178290E94EC33EC9F9001ED9FB5
:10103000300D1124620F731F811D911DDF91CF911F
:1010400008958F929F92AF92BF92CF92DF92EF92CC
:10105000FF924B015C010E94F2076B017C01A8EE3C
:10106000B3E0A50194010E94EC33C60ED71EE81E22
:10107000F91EC616D706E806F90618F40E94F2070C
:10108000F8CF0E94F2076C157D058E059F05C8F309
:10109000FF90EF90DF90CF90BF90AF909F908F9098
:1010A00008952FB7F89460917329709174298091F5
:1010B0007529909176292FBF08950C94000008950A
:1010C000DF92EF92FF920F931F93CF93DF93F82E4F
:1010D000E62ED42E0FE41DE2D0E0C0E080910D2D6D
:1010E00090910E2DC817D90784F4D8018D919D9148
:1010F0008D01DC01ED91FC910480F581E02D2D2D19
:101100004E2D6F2D09952196E9CFDF91CF911F913B
:101110000F91FF90EF90DF900895DF92EF92FF9292
:101120000F931F93CF93DF93F82EE62ED42E0FE468
:101130001DE2D0E0C0E080910D2D90910E2DC817DA
:10114000D90784F4D8018D919D918D01DC01ED9139
:10115000FC910680F781E02D2D2D4E2D6F2D0995E8
:101160002196E9CFDF91CF911F910F91FF90EF90E2
:10117000DF900895AF92BF92CF92DF92EF92FF92ED
:101180000F931F93CF93DF936C017B018B01040FAF
:10119000151FEB015E01AE18BF08C017D10759F04B
:1011A0006991D601ED91FC910190F081E02DC6018D
:1011B0000995892B79F7C501DF91CF911F910F9187
:1011C000FF90EF90DF90CF90BF90AF900895FC011B
:1011D000A485B58511968C91119781FD0FC09C91C6
:1011E00082898F5F8F732389281749F0A289AE0FF8
:1011F000BF2FB11D59969C93828B08958C910895B1
:1012000081E008950F9391E09093612910926029F5
:1012100060935E2970935F2940935D2920935C2938
:1012200010925B2910925A2900935929880F8093B4
:10123000582923E030E044E050E080915D29882384
:1012400041F02093562930935729809158298E7F59
:101250000BC080915C29882351F04093562950930C
:1012600057298091582981608093A70808C08091F0
:101270005D29811104C080915C29882311F380913C
:1012800060298823E1F3809160298330B1F2809155
:101290005C29882321F080915A290F91089590911B
:1012A000602981E09130C9F780E0F7CFE0EAF8E00B
:1012B00091859066918722E030E020935629309303
:1012C00057298093482910924729089581E08093F7
:1012D00047291092482993E09093AA089091AB086F
:1012E00091FF10C010925429E0914529F0914629B0
:1012F00009958093532985E090E080935629909337
:1013000057290895109255298093522986E090E03C
:10131000F4CF8F929F92AF92BF92CF92DF92EF92D3
:10132000FF92CF93DF9360342DE0720723E08207B2
:10133000910508F44EC0611525E372072CE0820781
:10134000910508F43FC060387F448241910508F060
:1013500040C0C8E7D0E020E432E44FE050E08090A5
:10136000012890900228A0900328B0900428C5017D
:10137000B4010E94FF3369017A018AE0C81AD108DA
:10138000E108F108DE01A50194010E94EC3320E0A0
:101390003AEC4AE95BE30E94FF33C21AD30AE40A3B
:1013A000F50AF694E794D794C794C092A608DF9103
:1013B000CF91FF90EF90DF90CF90BF90AF909F9034
:1013C0008F900895CCE2D1E020E83AE146E050E089
:1013D000C6CFC8EED3E020EA36E841E050E0BFCF08
:1013E0006093432970934429089560934129709331
:1013F00042290895E0914329F0914429309741F022
:101400001092402910923F29099580913F29089513
:1014100080E00895E0914129F0914229309759F0F8
:1014200030913E2920913D29321728F010923E2913
:1014300080933D29099408950895E0913E29809173
:101440003D29E81730F4F0E0E354F74D808190E057
:1014500008958FEF9FEF089590913E2980913D2947
:101460002FEF3FEF981748F4E92FF0E0E354F74DE2
:10147000208130E09F5F90933E29C90108958091BB
:101480003D2990913E29891B990B0895CF92DF92B7
:10149000EF92FF920F931F93CF93DF937C018A010A
:1014A000EB016B01C40ED51ECC15DD0551F0699121
:1014B000D701ED91FC910190F081E02DC7010995D4
:1014C000F3CFC801DF91CF911F910F91FF90EF9063
:1014D000DF90CF90089520913F2927FF08C021E099
:1014E00030E0FC012283338390E080E00895809116
:1014F0004029E82FF0E0E35CF74D60838F5F809335
:10150000402980933F2981E090E00895DC01ED912E
:10151000FC910688F789E02D61E009940F93809192
:101520005629909157290197A1F480916129811141
:1015300012C0062F20E040913F296DE378E28091B0
:101540003C280E9402091092402910923F290F91D5
:10155000089580E0F8CF81E0F6CF60933C281092A8
:10156000402910923F290895DC01ED91FC91028CF5
:10157000F38DE02D21E009940F938DEB98E2809399
:10158000492990934A29809156299091572901978A
:10159000C1F480916129811116C0FA0141385105C9
:1015A00010F0E0E8F0E0022F862F2E2F40E070E0F0
:1015B00060E00E94020910923E2980933D290F911C
:1015C000089580E0F8CF81E0F6CFCB01BA010C940A
:1015D0008909E0EAF8E01382168281E085831486A7
:1015E00011861092562910925729089510923E297B
:1015F00010923D291092402910923F29809156293E
:1016000090915729892BD9F482E090E08093562954
:1016100090935729109255291092542910924729D6
:101620001092482910923B2810925229660F60931D
:10163000AC0881EE8093A90881E08093A3088AEF2B
:1016400099E080934529909346298DE398E2809311
:101650004B2990934C298AE09AE0809350299093EB
:1016600051298DEB98E280934D2990934E2980E883
:1016700080934F29089510923E2910923D2910928F
:10168000402910923F298091562990915729892B02
:10169000F9F48091E30580618093E30581E090E0B7
:1016A000809356299093572910925A2910925B29BA
:1016B000109261291092602981EC8093A30860EA5E
:1016C00076E881E090E00E94890981E08093A50896
:1016D0000895DC011A96ED91FC9130E020E0099428
:1016E000DC011696ED91FC9130E020E040E069E1EC
:1016F0000994DC011696ED91FC9130E020E040E089
:1017000068E109949A01DC011696ED91FC91462F4F
:1017100067E10994EF92FF920F931F93CF93DF93AA
:101720001F92CDB7DEB77C018B01D8016C91673178
:1017300029F150F46531A0F40F90DF91CF911F9102
:101740000F91FF90EF9008956A3118F16E3FA1F765
:10175000F8014181498369E2C7010E94690B0BC00E
:10176000F80141814983D7011696ED91FC9130E053
:1017700020E0C70109950E5F1F4FD7CFF801818187
:101780008983AE014F5F5F4F61E0C7010E94820B0A
:10179000F2CF0F5F1F4FD7011696ED91FC9130E00D
:1017A00020E040E0C7010995C0CF462FDC01169626
:1017B000ED91FC9130E020E066E10994462FDC01D8
:1017C0001696ED91FC9130E020E065E10994EF92EE
:1017D000FF920F931F93CF93DF93EC01042F7901B6
:1017E0006D3009F446C050F46B30C9F1693009F42A
:1017F0009FC06A3009F465C080E046C06E3009F4CD
:1018000052C06F3099F70E94790BF7011381110FC5
:10181000110F110F6C89160F60E4CE010E94DE0BD0
:10182000612F62956F706061CE010E94DE0B612FA7
:101830006F70CE010E94D50BF7016481606BCE0101
:101840000E94D50BF701408151816281660F660FBE
:10185000660FCE010E94820B0150A1F72EC065EDEC
:1018600075EB442311F060ED75EBCE010E948A0BFD
:101870000AC0411110C069EC75EB0E948A0BE88127
:10188000F98182898C8B81E0DF91CF911F910F913B
:10189000FF90EF90089562EC75EB0E948A0BE8814F
:1018A000F9818389EFCF0E94790B61E8CE010E9414
:1018B000DE0B602FCE010E94D50BCE010E94700B73
:1018C000E2CFEA85FB8530E020E040E068E2CE012F
:1018D0000995EE81FF8130E020E040E064E1CE0137
:1018E000099541E06BE4CE010E94690BE881F98122
:1018F000448169E2CE010E94690B40E06BE4CE01B5
:101900000E94690BE881F981448169E2CE010E945D
:10191000690B41E06BE4CE010E94690BE881F9811B
:10192000458169E2CE010E94690B6AED75EB9DCF9E
:101930008FE096EB888399831C8AA5CFDC011896EB
:10194000ED91FC9130E020E040E069E10994DC0198
:101950001896ED91FC9130E020E040E068E10994B8
:10196000CF93DF931F92CDB7DEB76983BE016F5F60
:101970007F4F0E9451050F90DF91CF910895EF9214
:10198000FF921F93CF93DF93EC01162F7A010E94F1
:10199000A70C60E4CE010E94B00CE885F9859701A0
:1019A000412F67E1CE010995CE01DF91CF911F91C3
:1019B000FF90EF900C949E0CEF92FF921F93CF93A9
:1019C000DF93EC01142F7901663181F138F4643131
:1019D00009F44BC0653179F080E022C06831C9F16B
:1019E00050F16931C9F780913A28882391F1CE01ED
:1019F0000E949E0C2EC080913A28882319F0CE01B7
:101A00000E949E0CCE010E94A70C60E0CE010E94B5
:101A1000B00C612FCE010E94B00C81E080933A2877
:101A2000DF91CF911F91FF90EF900895642F0E9456
:101A3000B00C81E0F5CF80913A28882319F0CE01CF
:101A40000E949E0CA701193138F4612FCE010E942B
:101A5000BF0C10923A28EDCF68E1CE010E94BF0C76
:101A6000185188E1E80EF11CEDCF8E898F3F11F4FB
:101A700088E78E8BE885F9859701412F64E1CE01D7
:101A8000DF91CF911F91FF90EF900994CF93DF9357
:101A9000EC01A889B989FD01349131969491319670
:101AA00084911396FD01A4916317A8F1961798F1FC
:101AB000631B770B8A9FE02D1124E69FC001E79FEF
:101AC000900D1124280F392F311D83E0220F331F71
:101AD0008A95E1F7C9010496DA01245F3F4FE8894E
:101AE000F989E80FF91FE491ED93019682179307A6
:101AF000B1F78D89882361F0FA019A01285F3F4F81
:101B00008191DF01119780958C932E173F07C1F7C4
:101B1000DF91CF910895FA01CA0108961192E81752
:101B2000F907E1F7E6CF4F925F926F927F928F9223
:101B30009F92AF92BF92CF92DF92EF92FF920F935C
:101B40001F93CF93DF93CDB7DEB72D97CDBFDEBF09
:101B50007C01C62ED42EB22EDC0150968D919C9124
:101B6000FC013296149131960491512E560E040FB9
:101B700081E0860F581608F411E0712CFE013196B1
:101B80004F0144244394672CAC2C262DA4016B2DCB
:101B9000C7010E94460DAC86DD864B8689869A86F3
:101BA000D7011496ED91FC919E01275F3F4F41E0D4
:101BB0006FE0C70109956394A394A51430F3D394FF
:101BC000710ED01600F32D96CDBFDEBFDF91CF9101
:101BD0001F910F91FF90EF90DF90CF90BF90AF904B
:101BE0009F908F907F906F905F904F900895262FD9
:101BF000482F42954F70440F682F6F7088E99AE222
:101C00000C94930D1F93CF93DF93182FEB018091CA
:101C10007F2960E2880F880F880F0E94F70D80915E
:101C20007F2990918029019611164CF01123C9F05B
:101C300080917F299091802901978C0F9D1FBE0173
:101C40000E94623680937F299093802980917F291A
:101C50006EE3880F880F880FDF91CF911F910C944E
:101C6000F70D10927F2910928029F0CF1F93CF9308
:101C7000DF93182F8091682960910D2D70910E2DA2
:101C8000811112C0C091CE2AD091CF2ACC0FDD1F76
:101C9000C15BD24D888199810E942905E881F98133
:101CA000E259FF4F60817181812F0E94020E81E015
:101CB00080933928DF91CF911F910895CF93DF93BF
:101CC000EC01683189F130F4643199F0673151F0F9
:101CD00080E005C06931B9F16032D1F781E0DF9170
:101CE000CF91089550E0B9018AE19AE20E94460A34
:101CF000F5CF8C859D85AE85BF85892B8A2B8B2B57
:101D000071F4E881F981A585B0E020EA36E841E088
:101D100050E00E94EC336C877D878E879F878AE135
:101D20009AE20E943B0BDACF6C857D858E859F857C
:101D30000E9489096E8970E0759567958AE19AE23B
:101D40000E94AD0ACBCF8AE19AE20E94860AC6CFF2
:101D50000F931F93CF93DF938C016C32C0F46A32E0
:101D600008F040C0683269F1693209F44BC080E084
:101D70006034C8F16F73F801E60FF11D868D8F3F57
:101D800089F1603108F058C0642F70E017C06D32DF
:101D900009F43FC060F384EB860F823040F7C62F12
:101DA000CF73C00FD12FD11D8E8D61E070E0411136
:101DB0003EC00E94620770E060E08E8D0E945D0769
:101DC00011C0025E1F4FD0E0F80181918F018F3F5B
:101DD00031F061E070E0D03158F40E946207DF5FBB
:101DE000D63191F781E0DF91CF911F910F91089546
:101DF0000E94620761E070E0F801319780810E94E3
:101E00005D07EDCF642F70E090E080E00E94210834
:101E1000E9CF85E090E0433010F082E090E0880F59
:101E2000991F880F991F05970197F1F7DBCF0E9443
:101E3000620761E070E0C1CF30E020E08A3118F441
:101E40000E9438079C0191E0232B09F490E0F801EF
:101E5000918FC8CF1F93CF93DF93EC01EC89FD895D
:101E600049AD6A3059F43396E491E40FE9AF18AE06
:101E700081E090E0DF91CF911F910895262F329657
:101E8000149168AD04960E94930DE8ADE10FE8AFA0
:101E9000EFCFFC0120917F2930918029213031053D
:101EA00049F4838D882319F0148E828308958281EA
:101EB000848F08952115310519F02630310561F41C
:101EC0004DE0429FC001439F900D1124E80FF91F80
:101ED000968581E0891B87870895FC0180917F2981
:101EE000909180298130910549F4838D882319F0E0
:101EF000148E828308958281848F0895029785309D
:101F0000910540F4E80FF91FE053FF4F808191E005
:101F1000892780830895FC0180917F2990918029F1
:101F200083309105B1F01CF4019739F008958430A5
:101F30009105A1F00597B9F00895838DDF01A850B0
:101F4000BF4F882319F0148E8C9308958C91848F41
:101F5000089595A981E0891B86AB0895ED5BFF4F3D
:101F600085E180830895E05BFF4F8CE6FACFFC01AA
:101F700080917F29909180298130910549F4838D4A
:101F8000882319F0148E828308958281848F0895A6
:101F90008430910561F4DF01AE5BBF4F8C911196E7
:101FA000ED51FF4F882369F01C92808308950597B7
:101FB00051F4DF01A15BBF4F8C911196EC51FF4FA3
:101FC000F1CF80818C930895FC0180917F299091BD
:101FD0008029019741F4838D882319F0148E828320
:101FE00008958281848F0895FC0180917F299091CA
:101FF0008029019741F4838D882319F0148E828300
:1020000008958281848F0895242F9FEF960F993031
:1020100008F59091682991111DC0E091CE2AF091A8
:10202000CF2AEE0FFF1FE15BF24DA081B181FD01D0
:10203000E259FF4F408151816417150609F054F4AD
:10204000ED91FC9111970088F189E02D462F682FC2
:10205000CD010994089580916829811124C080914F
:10206000392881111DC0E091CE2AF091CF2AEE0FC0
:10207000FF1FE15BF24D80819181DC01ED91FC91CC
:102080000284F385E02D0995E091CE2AF091CF2AC4
:10209000EE0FFF1FE15BF24D808191810C94E30410
:1020A00010923928F1CF089590916829911125C097
:1020B0009091392891111EC0682FE091CE2AF0919D
:1020C000CF2AEE0FFF1FE15BF24D80819181DC0191
:1020D000ED91FC910084F185E02D0995E091CE2AE7
:1020E000F091CF2AEE0FFF1FE15BF24D80819181CD
:1020F0000C94E30410923928F1CF0895FC01258156
:10210000222361F02DE0269FF001279FF00D11247E
:10211000E80FF91F87859685981386870895161608
:102120009CF420917F29309180294DE0429FF0015D
:10213000439FF00D1124E80FF91F878591898917B6
:1021400010F48F5F878708956623E9F320917F2934
:10215000309180294DE0429FF001439FF00D112402
:10216000E80FF91F87859089981768F78150EACFA3
:1021700020917F29309180292115310561F0263089
:10218000310549F02230310521F4209167292111D0
:1021900002C00C948F10089520917F2930918029DE
:1021A000A901425051094530510538F4280F391F13
:1021B000F901E253FF4F208121110C948F100895F3
:1021C00020917F29309180292330310509F440C0C6
:1021D0002115310531F4DC01D5962C91222339F0FB
:1021E00008952430310529F025303105F9F00C949B
:1021F0008F10161664F4FC01ED5BFF4F2081815BAC
:102200009F4FDC018C91281718F52F5F0DC06623B6
:10221000F9F0FC01ED5BFF4F20818C5B9F4FDC01EF
:102220008C918217A8F421502083089516163CF44F
:10223000FC01E05BFF4F20818E5A9F4FE2CF662367
:1022400039F0FC01E05BFF4F20818E5B9F4FE7CFB1
:10225000089520917F29309180292250310923301F
:10226000310510F00C948F100895CF93DF93FC018B
:1022700080917F2990918029892B49F587851616B1
:1022800004F59189891710F48F5F8787EF01CE5B82
:10229000DF4F9F012A583F4FA785B0E0A859BF4F95
:1022A000AA0FBB1FAE0FBF1F8C918B83988189171C
:1022B00008F489832D962C173D0771F7DF91CF9194
:1022C0000895662319F3882309F38150DECFCF01E7
:1022D000DF91CF910C948F10FC0180917F29909118
:1022E00080298230910529F00397A1F0CF010C9449
:1022F0008F1016163CF481A595A98917E0F48F5F1D
:1023000081A708956623B9F081A592A5981798F43E
:102310008150F6CF16163CF486A990AD891758F473
:102320008F5F86AB0895662331F086A990A5981734
:1023300010F48150F6CF0895CF92DF92EF92FF9282
:102340000F931F93CF93DF93A22F242F2150330B92
:102350007901C0907F29D0908029C091CE2AD09158
:10236000CF2AA1962C153D0521F1142FCC0FDD1F8E
:10237000C35FD24D888199810E94290560E28C2D2E
:10238000880F880F880F0E94F70DE0927F29F09246
:1023900080298FEF810F6EE3880F880F880FDF9100
:1023A000CF911F910F91FF90EF90DF90CF900C9401
:1023B000F70D4DE0429F8001439F100D1124080F3F
:1023C000191FF801C088D12CF12CE12C8189282F0C
:1023D00030E050E040E02C193D094E095F09B0E0C3
:1023E0000E94EC332FE730E040E050E00E94CD3314
:1023F000C20ED31EE41EF51EF801C786CC0FDD1FEA
:10240000C35FD24D88819981DF91CF911F910F9148
:10241000FF90EF90DF90CF900C94E304413051F0A7
:10242000473041F0433021F430916729311102C027
:102430000C949C110895443041F0413021F4FC018A
:1024400035A9311102C00C949C1108953DEF340F51
:10245000333010F00C949C1108951F93CF93DF93A9
:10246000EC01142F0E949C111130E1F4DE01AE5BEF
:10247000BF4F9E012A583F4FEF85F0E0E859FF4FCC
:10248000EE0FFF1FEC0FFD1F808113968C931397A7
:102490009C91891718F411968C9311971D96A21789
:1024A000B30751F7DF91CF911F910895CF92DF923B
:1024B000EF92FF920F931F93CF93DF936C01EB0189
:1024C0007B01E40EF51E10E000E0CE15DF0561F0A3
:1024D0006991D601ED91FC910190F081E02DC6014A
:1024E0000995080F191FF1CFC801DF91CF911F91F6
:1024F0000F91FF90EF90DF90CF9008953DEF340F54
:10250000323010F00C949C110895FC0180917F29C9
:10251000909180298130910549F4838D882319F0A9
:10252000148E828308958281848F08959C012250A5
:1025300031092230310500F58330910521F420A5C1
:10254000222321F0089525A9211116C02DE0289FEE
:10255000D001299FB00D1124AE0FBF1F1E969C9174
:102560001E9781E0891B1F968C9386A9882329F0EA
:10257000E05AFE4F10821182089581A58823E1F36D
:10258000E25AFE4FF7CF20917F29309180292250C7
:1025900031092230310510F00C948F100895DC01C0
:1025A000E62FF0E027E2AD01481B590B4E175F07FD
:1025B0005CF0E80FF91F20E2AF01481B590B4730D0
:1025C000510524F42193F8CF2D93EDCF1082089577
:1025D000F0E0E0E06623C9F0262F2150330BF9012B
:1025E000F595E795DC0127E2AD01481B590BE4178F
:1025F000F50714F02D93F8CF319660FF06C0DC018B
:10260000AE0FBF1F119724E22C93E80FF91F20E2B1
:10261000AF01481B590B4730510514F42193F8CFF3
:1026200010820895DC018D919C91DC01ED91FC916B
:102630000190F081E02D0994EF92FF920F931F9388
:10264000CF93DF937C01EA018B01040F151FC017A4
:10265000D10739F06991F701808191810E941213AD
:10266000F6CFDF91CF911F910F91FF90EF900895DA
:10267000AC018AE09BE20C941C131F93CF93DF9371
:102680002150203118F587FF21C0D42F162FC82FD5
:10269000622F682B80910A2B90910B2B0E941213B2
:1026A000612F6F7780910A2B90910B2B0E94121350
:1026B000CF7EC03C59F06D2F6F7780910A2B90919F
:1026C0000B2BDF91CF911F910C941213DF91CF91BF
:1026D0001F910895262F40E0682F80E80C943D1349
:1026E000EF92FF920F931F93CF937C018C010F51B8
:1026F0001C4FC0E0F80181918F01882341F0F70160
:10270000638D8C2F0E946A13F80131971082CF5F7E
:10271000C03881F7CF911F910F91FF90EF900895EE
:10272000FF920F931F93CF93DF93EC01042FF22EB0
:102730008B8D882309F44EC09E8596134BC0682F5D
:10274000842F0E946A1381E08D8318A5112309F458
:1027500041C011500E94510827E12F1508F040C0D8
:1027600028EE2F0D3DA9E32FE00FFF27FF1FAF013C
:102770003C974D5051094036510508F40E2FDE01AB
:10278000A854BE4F3C91432F50E0FA01779633E0B6
:10279000EE0FFF1F3A95E1F7EC0FFD1F0083FA01E2
:1027A00003E0EE0FFF1F0A95E1F7CE0FDF1FFE01DA
:1027B000E754FF4F20833196608371838283938334
:1027C00034961082C154DF4F1883CA0101968F716D
:1027D00099278C93DF91CF911F910F91FF900895CE
:1027E00020E0C0CFCF93DF93EC019B8D992399F02C
:1027F0008E85861310C088A5481768F08DA94817E4
:1028000050F4FE01EE5BFF4F8081692F840F0E9420
:102810006A1381E08D83DF91CF910895CF93DF9389
:10282000E091CE2AF091CF2AEE0FFF1FE15BF24D2F
:1028300080819181DC01ED91FC910684F785E02D8A
:102840000995D82F882341F0C0E06D2F8C2F0E946E
:102850006A13CF5FCF37C9F7DF91CF910895CF9338
:10286000DF93EC018D81811109C0842F6B8D98A5B8
:10287000992339F00E946A1381E08D83DF91CF9113
:102880000895FE01E25AFE4F20813181232B91F3FE
:1028900080913828EFCF242F462F682F80E90C94A1
:1028A0003D13CF92DF92EF92FF921F93CF93DF936E
:1028B000EC01C0906229D0906329E0906429F090E7
:1028C0006529C701B60128E130E040E050E00E94F0
:1028D000FF33611571058105910589F1613071053D
:1028E0008105910591F11B8D112309F12DA9222359
:1028F000F1F088E1289F90011124032E000C440B75
:10290000550BC701B6010E94FF339B016B837C838B
:10291000FE01E45AFF4F8081882349F0C90168E134
:1029200070E00E946236009799F0039709F1DF91F9
:10293000CF911F91FF90EF90DF90CF90089561E0CD
:1029400070E082E00E94EB06CECF70E060E0F9CF4D
:10295000FE01E759FF4F6081412FB797232B19F0F4
:10296000FE01E15BFF4F80810E944B141D82DFCF8F
:10297000612FFE012330310541F4EE5BFF4F808172
:102980000E946A1381E08D83D2CFE15BFF4FF7CFC6
:102990000F931F93CF93DF93EC011B8D112309F449
:1029A00045C02E85222309F441C0FC01E759FF4FA1
:1029B0006081062F000F060F000F029F9001112467
:1029C000032E000C440B550B609162297091632912
:1029D00080916429909165290E94FF336B837C83E9
:1029E000202F30E0CB01B9010E946236FE01EB528C
:1029F000FF4F60830097F9F47727FE01E60FF71F7A
:102A0000E053FF4F8081882389F06E5F7F4F8DE018
:102A1000869FF001879FF00D1124EC0FFD1F412FC1
:102A20006091002886850E944B141D82DF91CF9112
:102A30001F910F9108950397C9F78D818111F6CFEA
:102A400077276E5F7F4F8DE0869FF001879FF00DA7
:102A50001124EC0FFD1F612F86850E946A1381E00F
:102A60008D83E4CFEF92FF920F931F93CF93DF9369
:102A7000EC01FC01E15BFF4FE081F0E0E45AFF4F25
:102A8000EE0FFF1FEC0FFD1F80819181009709F46D
:102A90004EC046E0489F9001499F300D1124032EFF
:102AA000000C440B550B6091622970916329809151
:102AB0006429909165290E94FF336B837C832DA943
:102AC000211135C0FE01EE5BFF4F208121112FC087
:102AD000FB8CFF2061F18E0160597F4F660F771FDD
:102AE000FE01E60FF71FC081D181EE24E394209709
:102AF000F1F088819B81992379F04F2D69810E94A3
:102B00004B14E881E00FF12FF11DEF51FC4FE082F3
:102B10000C80DD81C02DEBCF6F2D0E946A13E88100
:102B2000E00FF12FF11DEF51FC4F1082F1CFDF913B
:102B3000CF911F910F91FF90EF900895EF92FF9228
:102B40001F93CF93DF93EC011B8D112309F451C028
:102B5000EE85F0E0E859FF4FEE0FFF1FEC0FFD1F71
:102B6000E080F180E114F10409F443C086E08E9D19
:102B700090018F9D300D1124032E000C440B550B3A
:102B800060916229709163298091642990916529EF
:102B90000E94FF336B837C83CB0166E070E00E9470
:102BA0006236FB01009709F045C0DE01AE5BBF4F06
:102BB0002C9130E05A968C91A701481B5109460F81
:102BC000571F429FC001439F900D529F900D1124AB
:102BD000B7010E946236821793078CF488A5FE0124
:102BE000EE51FF4F8083412F609100280E944B14CB
:102BF0001D82DF91CF911F91FF90EF900895DE012C
:102C0000A15BBF4F2C9130E05A968C91B701681BA5
:102C100071096E0F7F1F629FC001639F900D729FAD
:102C2000900D1124B7010E946236821793070CF7AA
:102C30008DA9D5CF0397E9F68D818111DACFFE01F9
:102C4000EE51FF4F612F80810E946A1381E08D83D6
:102C5000D0CF8F929F92AF92BF92FF920F931F930C
:102C6000CF93DF93EC01042FF22E4B8D442309F414
:102C70004FC08E8586134CC0622F802F0E944B144C
:102C80001D8218A5112309F443C011500E94510858
:102C90004B015C0187E128EE2F0D8F1508F020E035
:102CA0008DA9800F9927991FAC014C5051090D97A0
:102CB0008036910508F4042FDE01A854BE4F4C91D4
:102CC00050E0FA01779683E0EE0FFF1F8A95E1F757
:102CD000EC0FFD1F0083CA0133E0880F991F3A955E
:102CE000E1F78C0F9D1FFC01E754FF4F20833196C5
:102CF00080829182A282B382349621E02083815423
:102D00009F4FFC0110834F5F5F4F4F7155274C93CE
:102D1000DF91CF911F910F91FF90BF90AF909F9047
:102D20008F900895CF93DF93EC01842F4B8D442334
:102D300091F09E8596130FC098A5891760F09DA904
:102D4000891748F4622FFE01EE5BFF4F9081890FD7
:102D50000E944B141D82DF91CF9108956D3F48F47E
:102D60006A3F10F4683F39F4FC01808191810C9432
:102D700012136E3FC8F7089580916729882391F058
:102D800081E0809366290E94F2076093302A709355
:102D9000312A8093322A9093332A6CEF8AE09BE2A7
:102DA0000C94AE160895809167298823C9F010927B
:102DB0006229109263291092642910926529109259
:102DC00066290E94F2076093302A7093312A80931B
:102DD000322A9093332A6AEF8AE09BE20C94AE1673
:102DE00008950F931F93CF93DF93FC012581222336
:102DF000A9F18B01EC016230710579F480916729AA
:102E0000882359F060910528709106288091072841
:102E1000909108280E940F3569A78DE0809FF001EE
:102E2000819FF00D1124EC0FFD1F678586858617A5
:102E3000A9F002301105E9F00730110509F449C085
:102E40000115110509F04BC06E8781E08093672959
:102E5000611109C00E94D31610926729DF91CF91AA
:102E60001F910F910895DF91CF911F910F910C94B5
:102E7000BC1680916729811122C070E090E080E04B
:102E80000E943E359B01AC01209305283093062813
:102E9000409307285093082860E876E988E19AE48F
:102EA0000E949D340E940F3560932C2A70932D2A26
:102EB00080932E2A90932F2A89A588A7CFCF80911F
:102EC0007F29909180290297B9F7CE010E94E304EF
:102ED000F3CFC759DF4F688360930028BFCFB80195
:102EE000CE01DF91CF911F910F910C947E10813E06
:102EF00010F40C943D13883F28F0682F8AE09BE281
:102F00000C94AE16089587FF0AC09CE0980F92308B
:102F100030F08D3F21F0803F18F4807F089580E0ED
:102F20000895982F9F7E282F2F7C203839F0803EDF
:102F300029F081E0903C19F080E0089581E0089547
:102F40000895FC01838D0895FC01838D0895FC0193
:102F5000838D0895FC01838D0895FC01838D089570
:102F60000895FC01838D0895FC01838D0895FC0173
:102F7000838D0895DC01ED91FC910684F785E02DA9
:102F800023E030E00994BF92CF92DF92EF92FF925C
:102F90000F931F93CF93DF93EC018B8D882309F45C
:102FA0004FC09E8596134CC0C22ED42E482F622F40
:102FB0008D2D0E944B14FE01ED0DF11DEF51FC4FC4
:102FC000BB24B394B08288A58823D1F1FE01E052DE
:102FD000FC4F1082E251F34000811181EB80FC80B4
:102FE00086E090E00E947C36FC01892BA1F0D08223
:102FF000C1828FEF800F8283B382D701AA0FBB1FDC
:10300000AC0FBD1FA052BF4F8D919C91119784832F
:103010009583ED93FC9384E090E00E947C36FC0164
:10302000892B71F0E082F182000F111FC00FD11FB8
:10303000C253DF4F8881998182839383E883F98328
:10304000DF91CF911F910F91FF90EF90DF90CF9084
:10305000BF900895CF92DF92EF92FF920F931F934C
:10306000CF93DF93EC018B8D882309F449C09E85B3
:10307000961346C0C22ED42E682F842F0E946A1346
:10308000FE01ED0DF11DEF51FC4F108288A5882344
:10309000B9F1FE01E253FF4F00811181EB80FC800A
:1030A00086E090E00E947C36FC01892BA1F0D08262
:1030B000C1828FEF800F82831382D701AA0FBB1FBB
:1030C000AC0FBD1FA052BF4F8D919C91119784836F
:1030D0009583ED93FC9384E090E00E947C36FC01A4
:1030E000892B71F0E082F182000F111FC00FD11FF8
:1030F000C253DF4F8881998182839383E883F98368
:10310000DF91CF911F910F91FF90EF90DF90CF90C3
:103110000895CF93DF938091682991E08927809368
:1031200068298823D1F06FE07DE28BE49CE20E9465
:10313000A63710928A2C60910D2D70910E2D80E093
:103140000E94020E81E080930B2D9FE390930C2D43
:1031500080933928DF91CF91089580917F299091B4
:1031600080298093CE2A9093CF2A880F991FFC0143
:10317000E15BF24DC081D181BE0168587F4F8BE485
:103180009CE20E94A63710928A2CC259DF4F6881B8
:103190007981D5CFCF93C62F81E080936829809124
:1031A0007F2960E2880F880F880F0E94F70D8C2F0F
:1031B00090E060910D2D70910E2D0E9462368093EB
:1031C0007F2990938029CF910C948918E0917F29D1
:1031D000F0918029E830F10508F03DC09B01DC0149
:1031E000EC50F74E0C947636FC180B191619191979
:1031F0002C1955197E1986191F968C911F9790E0EE
:10320000845A9F4F880F991FA80FB91F6D917C9109
:10321000C9010C94A6375C968C9163E677EB882302
:10322000B9F31F928F9387E697EB09C099968C911B
:10323000F8CFD6968C911F928F938BE697EB9F9346
:103240008F933F932F930E94AD370F900F900F9065
:103250000F900F900F900895FC01ED5BFF4F808160
:103260006CE00E944236682F6150770BAB015F9390
:103270006F93892F90E0805A9F4F880F991FA80F56
:10328000B91F11968C9111978F938C918F9381E731
:1032900097EB9F938F933F932F930E94AD378DB7FA
:1032A0009EB708968DBF9EBF0895FC01E05BFF4F5F
:1032B00080816CE00E944236682F6150770BAB0131
:1032C0005F936F93892F90E0805A9F4F880F991FCB
:1032D000A80FB91F11968C9111978F938C918F9392
:1032E00081E797EB9F938F933F932F930E94AD3786
:1032F0008DB79EB708968DBF9EBF0895FC01E35A17
:10330000FF4F808190E0825A9F4F7CCFA659BF4FDC
:103310008C9187CFFC019B0180917F29909180291E
:1033200081309105B9F087309105E1F0009711F5F2
:1033300087851F928F9387E697EB9F938F933F9399
:103340002F930E94AD370F900F900F900F900F901A
:103350000F900895848D63E677EB8111EACFC90160
:103360000C94A637E659FF4F80811F928F9387E711
:1033700097EBE3CFDF01A80FB91FA253BF4F4C91CA
:10338000411103C06BE777EBEACF4DE0489FD001D6
:10339000499FB00D1124AE0FBF1F1F968C916CE09A
:1033A0000E944236682F6150770BAB015F936F9399
:1033B000892F90E0845A9F4F880F991FE80FF91FBB
:1033C00081818F9380818F9381E797EB9F938F9378
:1033D0003F932F930E94AD378DB79EB708968DBF50
:1033E0009EBF0895FC019B0180917F2990918029C7
:1033F0008130910509F454C06CF40097B1F16DE08F
:10340000689FA001699F500D1124E40FF51F878567
:103410001F9236C08230910509F44AC0833091056D
:1034200071F786A96CE00E944236682F6150770BD5
:10343000AB015F936F93892F90E0845A9F4F880F61
:10344000991FE80FF91F81818F9380818F9381E706
:1034500097EB9F938F933F932F930E94AD378DB738
:103460009EB708968DBF9EBF0895878590E08859C6
:103470009F4F880F991FE80FF91F81818F938081DB
:103480008F9387E697EB9F938F933F932F930E94A1
:10349000AD370F900F900F900F900F900F900895F1
:1034A000848D8111B5CF63E677EBC9010C94A63703
:1034B00081A56CE00E944236682F6150770BAB010A
:1034C0005F936F93892F90E0845A9F4F880F991FC5
:1034D000E80FF91F81818F9380818F9381E797EBAC
:1034E0009F938F933F932F930E94AD378DB79EB7D5
:1034F00008968DBF9EBF0895E0917F29F0918029A5
:10350000E830F10508F0A9C0272F362FDC01E55778
:10351000F54E0C947636B01A991A931AB31AC31A48
:10352000EC1A151B211B99966C91832F972F0C94E5
:10353000CF125C968C9163E677EB882301F11F92A2
:103540008F9387E697EB9F938F932F933F930E94E0
:10355000AD370F900F900F900F900F900F90089530
:103560001F968C91ECCFD6968C91D69790E0880FD1
:10357000991FA80FB91FA750BF4F6D917C91832F42
:10358000922F0C94A637FC01ED5BFF4F80816CE01D
:103590000E944236682F6150770BAB015F936F93A7
:1035A000892F90E0880F991FA80FB91FA350BF4F14
:1035B00011968C9111978F938C918F9381E797EB54
:1035C0009F938F932F933F930E94AD378DB79EB7F4
:1035D00008968DBF9EBF0895FC01E05BFF4F808180
:1035E0006CE00E944236682F6150770BAB015F930D
:1035F0006F93892F90E0880F991FA80FB91FA350D0
:10360000BF4F11968C9111978F938C918F9381E777
:1036100097EB9F938F932F933F930E94AD378DB776
:103620009EB708968DBF9EBF0895FC01E35AFF4FD9
:10363000808190E0880F991FA80FB91FA350BF4F3A
:103640009CCFFC01E659FF4F808190E0880F991FC5
:10365000A80FB91FAB5EBE4F90CF0895FC01CB0100
:1036600040917F295091802942305105A1F13CF4CD
:103670004115510561F041305105F9F0089544308C
:10368000510559F1E4F04530510561F10895278560
:1036900063E677EB2223E9F01F922F9327E637EBBF
:1036A0003F932F939F938F930E94AD370F900F906E
:1036B0000F900F900F900F900895248DE9CF26A9B9
:1036C00030E02B593F4F220F331FE20FF31F608171
:1036D00071810C94A63721A5F3CFDF01AD5BBF4FFD
:1036E0002C91EECFDF01A05BBF4F2C9130E0245A2C
:1036F0003F4F220F331FE20FF31F21812F932081B1
:103700002F9328E737EBCCCFFC01CB0120917F2909
:10371000309180292230310541F13CF421153105E9
:1037200061F021303105F9F008952430310519F1A7
:103730008CF125303105B1F10895278563E677EBEB
:10374000222331F11F922F9327E637EB3F932F93DC
:103750009F938F930E94AD370F900F900F900F9013
:103760000F900F900895248DE9CF21A51F922F93DC
:1037700028E737EBEBCFDF01AD5BBF4F2C9130E09B
:1037800023523F4F220F331FE20FF31F60817181DD
:103790000C94A63726A92C50330B3F932F932FE779
:1037A00037EBD4CFE05BFF4F20812A50330B3F93A0
:1037B0002F9323E837EBCACFFC019B0180917F292F
:1037C000909180298230910549F12CF4009759F0AD
:1037D000019789F008958330910509F443C0049757
:1037E00009F464C008958785811107C063E677EB0B
:1037F000C9010C94A637848DF7CF1F928F9387E66B
:1038000097EB9F938F933F932F930E94AD370F9029
:103810000F900F900F900F900F90089581A56CE07E
:103820000E944236682F6150770BAB015F936F9314
:10383000892F90E0845A9F4F880F991FE80FF91F36
:1038400081818F9380818F9381E797EB9F938F93F3
:103850003F932F930E94AD378DB79EB708968DBFCB
:103860009EBF089586A96CE00E944236682F615081
:10387000770BAB015F936F93892F90E0845A9F4F32
:10388000880F991FE80FF91F81818F9380818F9393
:1038900081E797EB9F938F933F932F930E94AD37D0
:1038A0008DB79EB708968DBF9EBF0895DF01AD5BB3
:1038B000BF4F8C9190E0845A9F4F880F991FE80F5B
:1038C000F91F81818F9380818F9389E897EB99CF3E
:1038D000DC01E0917F29F0918029E830F10518F5AD
:1038E000CB01EB58F34E0C9476367D1C941CA51C32
:1038F000971CA91CAE1CB11CB61C1F962C9163E62C
:1039000077EB222301F11F922F9327E637EB3F93AA
:103910002F939F938F930E94AD370F900F900F902E
:103920000F900F900F9008955C962C91E8CFD6964B
:103930002C91D69730E0245A3F4F220F331FA20F0D
:10394000B31F6D917C910C94A63799962C91999701
:10395000F1CFAD5BBF4F6C910C94E812A05BBF4FF1
:10396000FACFA35ABF4F6C910C94CF12FD01E659C8
:10397000FF4F208130E02D593F4F220F331FA20F00
:10398000B31F11962C9111972F932C912F9329E807
:1039900037EBBDCF0E94A1372F923F924F925F929B
:1039A0006F927F928F929F92AF92BF92CF92DF924F
:1039B000EF92FF920F931F93CF93DF93EC011B8D38
:1039C000112309F4C1C02E85222309F4BDC086E06D
:1039D000289F90011124032E000C440B550B60917D
:1039E00062297091632980916429909165290E94D0
:1039F000FF336B837C83CB0166E070E00E9462360C
:103A0000009709F0B4C02DA9DE01AE5BBF4F4D0198
:103A10008E01060F171F211183C0FE01E45AFF4FCC
:103A200030803D9720808C91845F83197A96A080A6
:103A3000B12C3CE0F32EFA9CA001FB9C500D11240C
:103A4000FA01EC5CF54D33856F2D0E944236692FEB
:103A500070E0DF01A60FB71FCC90839FC00C11242C
:103A60004C59554D640F751FDB018C91C81A8CE0C1
:103A7000820D83196F2D0E944236692F70E0E60F88
:103A8000F71F4080839F400C1124460F571FFA01F7
:103A90008081481A4C1409F43FC0512C712C612CC0
:103AA000D12CF12CE12CC414D504E604F7048CF4D9
:103AB0004C185D086E087F0841F00E947533A30121
:103AC00092010E94CD332B013C01C40CD51CE61C95
:103AD000F71C8C2D90E0F501EE0FFF1FE555F94422
:103AE000608171810E9462369C019CE09A9DF00188
:103AF0009B9DF00D1124E558F944E20FF31F8081DE
:103B0000969F800D1124830D9927991F2816190659
:103B100009F00CF40C97282FF801E854FF4F20838C
:103B2000F801E854FF4F8081D4019C91891760F01F
:103B3000FE01E15BFF4F9081891730F44B8D60915E
:103B400000280E944B141D82DF91CF911F910F918D
:103B5000FF90EF90DF90CF90BF90AF909F908F90AD
:103B60007F906F905F904F903F902F90089528A581
:103B70002817190649F78D818111E6CF6C0F7D1F3B
:103B8000FB01E854FF4F612F80810E946A1381E09E
:103B90008D83DACFCF92DF92EF92FF921F93CF9374
:103BA000DF93EC01162F0E947533FE01EE5BFF4F91
:103BB00020813AE0C32ED12CC21AD1080D2C000C62
:103BC000EE08FF082AE030E040E050E00E94CD33EC
:103BD0006C157D058E059F0584F00E94753325E0E8
:103BE00030E040E050E00E94CD33625A7F4F660FD4
:103BF000771FC60FD71F8881180F812FDF91CF91B4
:103C00001F91FF90EF90DF90CF9008954F925F92B9
:103C10006F927F92BF92CF92DF92EF92FF920F93BB
:103C20001F93CF93DF93EC01BB8CBB2009F48AC0B8
:103C30008DA9882309F486C0FE01E25AFE4F8081D7
:103C40009181009709F47EC046E0489F9001499F0A
:103C5000300D1124032E000C440B550B609162298A
:103C60007091632980916429909165290E94FF33A6
:103C70006B837C8306E010E0CB01B8010E946236C2
:103C8000892B09F06DC00E947533FE01E15BFF4F87
:103C90004080512C712C612C4AE0C42ED12CE12C97
:103CA000F12CA70196010E94CD3364157505860598
:103CB00097050CF455C08B819C81B8010E94623637
:103CC0008E01005A1E4FD8016D937C93FB01E15980
:103CD000FF4FEE0FFF1FEC0FFD1F6081CE010E9412
:103CE000CA1DFE01E759FF4F9081890F8093382844
:103CF000D801ED91FC91EE0FFF1FEC0FFD1FE1527B
:103D0000FF4F10810E947533FE01EE5BFF4F208153
:103D10003AE0432E512C421A5108052C000C66083B
:103D20007708A70196010E94CD33641575058605B5
:103D300097050CF016954B2D612F809138280E9425
:103D40004B141D82DF91CF911F910F91FF90EF9047
:103D5000DF90CF90BF907F906F905F904F900895CD
:103D60008B819C8166E070E00E946236FE01E45A1D
:103D7000FF4F20812817190629F78D818111E2CF85
:103D80006B2D809138280E946A1381E08D83DACFF1
:103D90008F929F92AF92BF92CF92DF92EF92FF925B
:103DA0000F931F93CF93DF93EC01DB8CDD2071F138
:103DB0008E8586132BC08DA9811128C0622F842F78
:103DC0007E0192EAE91A9EEFF90AD701ED91FC9182
:103DD00098A5992341F1E034F105A4F4DF01A1593C
:103DE000BF4FAA0FBB1FAC0FBD1F8C93DF01AA0FE3
:103DF000BB1FAC0FBD1FA152BF4F2C933196D701F3
:103E0000ED93FC934D2D0E944B141D82DF91CF91B9
:103E10001F910F91FF90EF90DF90CF90BF90AF90E8
:103E20009F908F900895EF2B69F38E01005A1E4FDB
:103E3000D801ED91FC91E159FF4FEE0FFF1FEC0F00
:103E4000FD1F6081CE010E94CA1DFE01E759FF4F90
:103E50009081890F80933828D801ED91FC91EE0F65
:103E6000FF1FEC0FFD1FE152FF4FC0800E94753312
:103E7000FE01EE5BFF4F20813AE0832E912C821AE7
:103E80009108092C000CAA08BB082AE030E040E0A9
:103E900050E00E94CD33681579058A059B050CF02A
:103EA000C6944D2D6C2D809138280E944B14F8013A
:103EB000808191810196D7016D917C910E9462363B
:103EC00080839183A2CFDF92EF92FF920F931F9393
:103ED000CF93DF93D82E7A01082F10E0000F111F27
:103EE000060F171FF801808191810097E9F0FC010E
:103EF000C081D18122813381F801208331830E94E6
:103F00001837CC0FDD1FCE0DDF1D888199810097FA
:103F100049F3FC012281D212E5CF24813581288327
:103F200039830E941837F1CFDF91CF911F910F9104
:103F3000FF90EF90DF900895AF92BF92CF92DF9203
:103F4000EF92FF920F931F93CF93DF93EC01809139
:103F50007F29909180298130910519F58B8D8823D7
:103F6000E9F01C8ECE010E94701380917F29909100
:103F700080292DE0289FF001299FF00D1124EC0FDE
:103F8000FD1F86858A83DF91CF911F910F91FF904E
:103F9000EF90DF90CF90BF90AF9008958A818C8F83
:103FA000F2CF9C01225031092330310560F7833074
:103FB000910509F043C019A6FE01ED5BFF4F108289
:103FC0002DE0289FF001299FF00D1124EC0FFD1F1B
:103FD000968581E0891B87878EA98823D9F1FE0108
:103FE000E253FF4F808191811816190654F4DE01C7
:103FF000A052BC4F2C91222321F001978083918302
:104000001C9280819181181619065CF401978083B7
:104010009183AE0140525F4FBE0160537F4F0E94BB
:10402000631FCE01DF91CF911F910F91FF90EF9011
:10403000DF90CF90BF90AF900C94701382309105B9
:1040400011F41EAAB9CF8430910509F0B9CF1EAA88
:1040500019A6B6CF89A5FE01882391F0E253FF4F40
:1040600080819181C052DC4F8830910534F42881E1
:10407000211103C001968083918381E0888383CFDF
:10408000ED5BFF4F8081882309F47DCF8E010253C1
:104090001F4FF801808191819E0120523C4F5901B0
:1040A0001816190604F5F9012081222331F0019731
:1040B000F80180839183F50110826E01F0EECF0E3E
:1040C000D11C7E0120EDE20EF11CF801808191816E
:1040D0001816190644F4019780839183A601B7014D
:1040E0000E94631FF2CFF50110829BCFCF92DF9227
:1040F000EF92FF920F931F93CF93DF9380916729E5
:10410000882309F47AC0CFE4DDE2F12CE12C809120
:104110000D2D90910E2DE816F9066CF48991999168
:10412000DC01ED91FC910280F381E02D0995BFEF58
:10413000EB1AFB0AECCF10926629C0906229D0904E
:104140006329E0906429F0906529C114D104E10449
:10415000F10421F50E94F2076093282A7093292A1E
:1041600080932A2A90932B2A8FEFC81AD80AE80A3C
:10417000F80AC0926229D0926329E0926429F092F1
:10418000652968EF8AE09BE2DF91CF911F910F9143
:10419000FF90EF90DF90CF900C94AE16C701B60160
:1041A00028E130E040E050E00E94FF33672B682BAD
:1041B000692BD1F60E94F2070091282A1091292A32
:1041C00020912A2A30912B2A601B710B820B930BB2
:1041D0000E943E359B01AC0160EC71EE84E69CE4EC
:1041E0000E949D340E94D135609305287093062863
:1041F0008093072890930828ADCFDF91CF911F912E
:104200000F91FF90EF90DF90CF9008951F920F9243
:104210000FB60F9211242F933F934F935F936F9399
:104220007F938F939F93AF93BF9340917329509146
:1042300074296091752970917629809171299091E6
:10424000722920916F2930917029420F531F611DEF
:10425000711D20916D2930916E29820F931F883E28
:1042600023E0920730F0885E93404F5F5F4F6F4FBF
:104270007F4F8093712990937229409373295093B3
:104280007429609375297093762980917B29909188
:104290007C29A0917D29B0917E290196A11DB11D97
:1042A00080937B2990937C29A0937D29B0937E29CC
:1042B00081E08093860ABF91AF919F918F917F910A
:1042C0006F915F914F913F912F910F900FBE0F9083
:1042D0001F9018951F920F920FB60F9211242F93D3
:1042E0003F934F935F936F937F938F939F93AF937E
:1042F000BF93EF93FF9380EB9BE20E94AF05FF918A
:10430000EF91BF91AF919F918F917F916F915F914D
:104310004F913F912F910F900FBE0F901F901895C6
:104320001F920F920FB60F9211242F933F934F932A
:104330005F936F937F938F939F93AF93BF93EF930D
:10434000FF9380EB9BE20E94E708FF91EF91BF9102
:10435000AF919F918F917F916F915F914F913F911D
:104360002F910F900FBE0F901F9018951F920F92D4
:104370000FB60F9211242F933F934F935F936F9338
:104380007F938F939F93AF93BF93EF93FF9381E8B6
:1043900099E20E94AF05FF91EF91BF91AF919F917C
:1043A0008F917F916F915F914F913F912F910F90DE
:1043B0000FBE0F901F9018951F920F920FB60F927D
:1043C00011242F933F934F935F936F937F938F931A
:1043D0009F93AF93BF93EF93FF9381E899E20E947D
:1043E000E708FF91EF91BF91AF919F918F917F91DE
:1043F0006F915F914F913F912F910F900FBE0F9052
:104400001F9018951F920F920FB60F9211242F93A1
:104410003F934F935F936F937F938F939F93AF934C
:10442000BF93CF93EF93FF93C091AB08C2FF0AC035
:1044300010925529109254291092532984E00E9419
:10444000560914C0C6FF2FC080915229813051F403
:1044500080915529E0915029F091512990E00995DA
:1044600010925229C0FF14C00E946609FF91EF917B
:10447000CF91BF91AF919F918F917F916F915F91FC
:104480004F913F912F910F900FBE0F901F90189555
:1044900080E48093AB0881E00E9456098091AB08CC
:1044A00085FFE4CFE1CFC7FF5CC0C3FF08C0109217
:1044B0005529109254291092532983E0C0CF80913E
:1044C000A90880668093A9088091AB0881FF2CC061
:1044D00080915429882349F08091AB0884FF05C05E
:1044E00082E08093AA0881E0AACF9091542980911C
:1044F00053299817A8F4E091542980914B29909161
:104500004C29E80FF92FF11D80818093AD0880912F
:1045100054298F5F8093542983E08093AA08A6CF03
:1045200082E08093AA088BCF9091552980914F29E2
:10453000981790F48091AD08E091552920914D296C
:1045400030914E29E20FF32FF11D80838091552980
:104550008F5F80935529E0CF86E08093AA0882E0A0
:104560006ECF85E06CCF1F920F920FB60F92112481
:104570002F933F938F939F93EF93FF938091A50881
:10458000982F9C70E1F08091A50894E082FF93E061
:10459000909360298093A50881E090E0809356294C
:1045A0009093572910926129FF91EF919F918F91DC
:1045B0003F912F910F900FBE0F901F90189586FF7F
:1045C0004EC020915D2990915C298091A50884FFBF
:1045D00015C080915929882379F083E08093A4083D
:1045E00085E0809360291092612981E090E08093BA
:1045F000562990935729D8CF81E0F0CF80915B293D
:10460000821790F4E0915B2980915E2990915F2957
:10461000E80FF92FF11D80818093A80880915B2914
:104620008F5F80935B29C0CF80915A29891760F4EE
:1046300084E090E0809356299093572980915829DF
:1046400081608093A708B0CF80915929882329F0F1
:1046500083E08093A40881E0C4CF81E0FACF87FF94
:1046600040C090915A2980915C299817D8F4809184
:10467000A808E0915A292091492930914A29E20F4E
:10468000F32FF11D808380915A298F5F80935A29DF
:1046900090915C2980915A298917D8F482E08093FF
:1046A000A40882CF80915929882389F087E08093DC
:1046B000A40882E0809360291092612981E090E053
:1046C000809356299093572910925C296DCF85E0ED
:1046D000EECF80915929882311F087E0BACF85E089
:1046E000B8CF86E07ECFEF92FF920F931F93CF93C8
:1046F000DF93FC01E259FF4FC081D1819C0150E062
:1047000040E070E060E06C177D07DCF48901081B75
:10471000190BF901E758FF4F7A01A3E7EA1AF108EC
:10472000DF01A01BB10BAE0DBF1DAC91AA2311F090
:10473000A193F6CF6F5F7F4F285F3F4F435F5F4F7F
:10474000E2CFDF91CF911F910F91FF90EF900895ED
:10475000CF93DF93EC0180EB95EB88839983CE01B7
:1047600080599F4F0E94A6371B821C82FE0181E068
:1047700016861786108A118A828B3D968F5F893044
:10478000B9F7FE01E858FF4FC954DF4F80E281932B
:10479000EC17FD07E1F71082DF91CF9108956F923A
:1047A0007F928F929F92AF92BF92CF92DF92EF92C1
:1047B000FF920F931F93CF93DF931092B22B10921F
:1047C000B32B88EE93E0A0E0B0E08093B42B9093FD
:1047D000B52BA093B62BB093B72B47E356EB409382
:1047E000B02B5093B12B60E478E06093BC2B7093B6
:1047F000BD2B1092BE2B61E06093BF2B1092C02B9B
:104800001092C22B1092C32B1092C42B1092C52B66
:1048100060E26093C62B1092C72B1092C82B1092A7
:104820008329109284298093852990938629A093C7
:104830008729B0938829409381295093822940E0A9
:1048400058E040938D2950938E2943E040938F295F
:1048500042E040939029109291291092932910924E
:104860009429109295291092962942E14093972914
:10487000109298291092992910921C2A10921D2AA0
:1048800080931E2A90931F2AA093202AB093212A56
:1048900081E596EB80931A2A90931B2A4091012878
:1048A00050910228609103287091042876956795AD
:1048B0005795479580E0413099E059079DE3690796
:1048C000710540F076956795579547958F5F8630CF
:1048D00091F787E094E09093272A982F9095292FBD
:1048E000217030E054E0220F331F5A95E1F78162C6
:1048F000822B8093262A0E94F2076093302A7093BD
:10490000312A8093322A9093332A209105283091BE
:104910000628409107285091082860E876E988E148
:104920009AE40E949D340E940F3560932C2A709364
:104930002D2A80932E2A90932F2A0E94F2076093AB
:10494000282A7093292A80932A2A90932B2A10923E
:10495000962A1092972A1092CC2A1092CD2A87E795
:1049600096EB8093942A9093952A1092982A10920D
:10497000992A1092AD2A1092B02A1092A42A10926D
:10498000A52A1092A62A1092A72A8FEF8093AE2A0A
:104990008093B22AE6EBFAE2CFEFC193AAE2EC3CB5
:1049A000FA07D9F787EE9BE080939C2A90939D2A83
:1049B0008CED9CE080939E2A90939F2A8EE59EE04A
:1049C0008093A02A9093A12A88EA9EE08093A22A4D
:1049D0009093A32A30E020E040E069E088E99AE281
:1049E0000E94E70BC093C12AC093C22AC093C32A76
:1049F00010920D2D10920E2D1092CE2A1092CF2AC9
:104A00008EE380930F2DE0E1FDE280E28193BDE231
:104A1000EE34FB07D9F710924E2DEBE8FCE280E272
:104A200081939CE2EA3CF907D9F71092CA2C88EFEF
:104A300090E08093A82A9093A92A80EB9BE2809330
:104A4000492C90934A2C1092E02A1092E12A10925D
:104A5000E22A1092E32A1092E42A1092E52A109298
:104A6000E62A1092E72A1092E82A1092E92A109278
:104A7000EA2A1092EB2A1092EC2A1092ED2A109258
:104A8000EE2A1092EF2A1092F02A1092F12A109238
:104A9000F22A1092F32A1092F42A1092F52A109218
:104AA000F62A1092F72A1092F82A1092F92A1092F8
:104AB000FA2A1092FB2A1092FC2A1092FD2A1092D8
:104AC000FE2A1092FF2A1092002B1092012B1092B6
:104AD000022B1092032B1092042B1092052B109294
:104AE000062B1092072B1092082B1092092B89E4A9
:104AF0009CE280930A2B90930B2B10920C2B10921C
:104B00000D2B10920E2B1092122B1092132B109231
:104B1000142B1092152B8FEF9FEF8093162B9093F1
:104B2000172B8093182B9093192B83E080931A2BCB
:104B300010921B2B10921C2B10921D2B10921E2BCF
:104B400010929F2BEFE1FBE280E8DF011D928A9536
:104B5000E9F71092A22B1092A32B1092A42B109283
:104B6000A52B1092A62B1092A72B1092A82B109277
:104B7000A92B1092AA2B1092AB2B1092AC2B109257
:104B8000AD2B1092AE2B1092AF2B80ED90E00E94D7
:104B90007C36EC016DE877EB0E94A82381E597EB6A
:104BA00088839983DE01A854BF4F88E1E2E0F5EBEA
:104BB00001900D928A95E1F769E977EBCE010696AF
:104BC0000E94A63700E1098B64E977EBCE0143969A
:104BD0000E94A6370E8F68E977EBCE0180960E947F
:104BE000A63795E1A92EA9A6A8A6AAA62CE6B22EBC
:104BF000BBA66CE977EBCE018D960E94A637BEAAC4
:104C0000BDAAAFAAB8AE60EA77EBCE01CA960E9401
:104C1000A637FE01EB5BFF4F8BE08083B99685E002
:104C200090E08083918311E01D838B8D8A83CE0178
:104C30000E947323C093DE2AD093DF2A86EF91E08F
:104C40000E947C36EC0164EA77EB0E94A8238BE398
:104C500097EB88839983DE01A654BE4F84E1EAE195
:104C6000F5EB01900D928A95E1F7DE01A253BE4F5C
:104C700088E2EEE2F5EB01900D928A95E1F769E9A1
:104C800077EBCE0106960E94A637098B64E977EB95
:104C9000CE0143960E94A6370E8F6AEA77EBCE01CB
:104CA00080960E94A63719A718A783E08BA761EB0F
:104CB00077EBCE01CA960E94A637FE01ED5BFF4F4F
:104CC00084E0808331978083339688E0808366EB2D
:104CD00077EBCE01895B9F4F0E94A637FE01E05B18
:104CE000FF4F8AE08083319780833296108231961D
:104CF00084E180836BEB77EBCE018D960E94A63723
:104D00008CE08EAB8DAB1FAA38E1932E98AEFE01DE
:104D1000E259FF4F86E090E0808391831D83CE01AE
:104D20000E947323FE01E854FE4F108231961082D8
:104D30008B8D8A83C093DC2AD093DD2A88ED90E0A6
:104D40000E947C36EC0161EC77EB0E94A82385E29F
:104D500097EB88839983FE01E854FF4F809156B505
:104D6000909157B5A09158B5B09159B58083918372
:104D7000A283B3833496C0905AB5D0905BB5E090CF
:104D80005CB5F0905DB5C082D182E282F382DE0133
:104D9000A054BF4FE2E0F5EB892D01900D928A956A
:104DA000E1F766EC77EBCE0106960E94A6371F86E8
:104DB0001E86198B64E977EBCE0143960E94A637D5
:104DC0000E8F6CEC77EBCE0180960E94A63788E7B9
:104DD00089A788A78EE18AA780EF8BA760ED77EB84
:104DE000CE018D960E94A63786E088AF66ED77EB00
:104DF000CE01CA960E94A637FE01ED5BFF4F4CE341
:104E0000842E8082319780826BED77EBCE01895BB7
:104E10009F4F0E94A637FE01E05BFF4F80823197D3
:104E200080823296A0823D97A0823E96B0823D97C6
:104E3000B08260EE77EBCE018C5A9F4F0E94A6376E
:104E4000FE01E15AFF4F108367EE77EBCE018F59D9
:104E50009F4F0E94A637FE01E559FF4F1082319601
:104E60008FE78083329784E68083349688E090E0F1
:104E7000808391831D83CE010E9473238B8D8A834F
:104E8000C093DA2AD093DB2A86ED90E00E947C362C
:104E9000EC016EEE77EB0E94A8238FE097EB8883FE
:104EA0009983DE01A854BF4FEEE5F5EB01900D921A
:104EB0009A94E1F764EF77EBCE0106960E94A6374D
:104EC00085E0898B64E977EBCE0143960E94A63793
:104ED0000E8F6BEF77EBCE0180960E94A63762E0D3
:104EE00078EBCE018D960E94A63769E078EBCE0173
:104EF000CA960E94A63760E178EBCE01895B9F4F8E
:104F00000E94A63767E178EBCE018C5A9F4F0E9432
:104F1000A637FE019E012F5B3F4F8CE345E19CE6E7
:104F200081A780A742A793A73D96E217F307C1F791
:104F30006EE178EBCE018F599F4F0E94A637FE019C
:104F4000E659FF4F11E0108331971083329610839A
:104F5000319600E100833296B8E0AB2EB12CA082EE
:104F6000B1821D83CE010E9473238B8D8A83FE0143
:104F7000E053FF4F108331961083319610833196A2
:104F8000108331961083C093D82AD093D92A82E611
:104F900091E00E947C36EC0164E278EB0E94A82349
:104FA00089EF96EB88839983FE01E854FF4FC08216
:104FB000D182E282F382DE01A454BF4F8AE0E6E7A9
:104FC000F5EB01900D928A95E1F7DE01AA53BF4FF0
:104FD00088E1E2E0F5EB01900D928A95E1F769E94D
:104FE00077EBCE0106960E94A637098B64E977EB32
:104FF000CE0143960E94A6370E8F6BE278EBCE016E
:105000008D960E94A63718AF60E378EBCE018096AC
:105010000E94A6371BA767E378EBCE01CA960E94D1
:10502000A637FE01EB5BFF4F8AE0982E90826EE37D
:1050300078EBCE01895B9F4F0E94A637FE01EE5AA6
:10504000FF4F908263E478EBCE018C5A9F4F0E9411
:10505000A637FE01E35AFF4F83E0808331978083B8
:10506000339685E080833197108360EA77EBCE0139
:105070008F599F4F0E94A637FE01E459FF4F8BE0E6
:1050800080833296A082B182E051FF4F108211825C
:105090001D838B8D8A83CE010E947323C093D62AF1
:1050A000D093D72A81E694E00E947C36EC0168E434
:1050B00078EB0E94A82383EE96EB88839983DE0128
:1050C000A854BF4F82E1E0E8F5EB01900D928A957C
:1050D000E1F7FE01E653FF4FC082D182E282F38204
:1050E00069E977EBCE0106960E94A637098B64E941
:1050F00077EBCE0143960E94A6370E8F60E378EBE4
:10510000CE0180960E94A6371BA76FE478EBCE01F4
:105110008D960E94A63718AF64E578EBCE01CA964B
:105120000E94A637FE01EB5BFF4F108364EF77EB25
:10513000CE01895B9F4F0E94A637FE01E05BFF4FC7
:1051400084E0808331978083339688E080837C96E7
:1051500086E090E0808391831D83CE010E947323BB
:105160001B821C82FE01E253FF4F10821182DE017E
:10517000A052BC4F1C92729611921192EA17FB0733
:10518000D9F7FE01E053FF4F108211823296108250
:1051900011823296108211823296108211823296DA
:1051A0001082118232961082118232961082118200
:1051B000329610821182ED5FFC4FCE018F599B4FCA
:1051C0001192E817F907E1F78B8D8A83C093D42AEF
:1051D000D093D52A85EE90E00E947C36EC016BE5F9
:1051E00078EB0E94A8238DEC96EB88839983DE01EF
:1051F000A854BF4F88E1E2E0F5EB01900D928A954B
:10520000E1F7DE01A053BF4F82E1E2E9F5EB019047
:105210000D928A95E1F764EF77EBCE0106960E9436
:10522000A63786E08F878E8758E0752E798A64E9E5
:1052300077EBCE0143960E94A63710E11E8F62E6FF
:1052400078EBCE0180960E94A6376CE3B62EB9A605
:10525000B8A675E1972E9AA60CE60BA768E678EB40
:10526000CE018D960E94A637BEAABDAA9FAA08AFFE
:105270006EE678EBCE01CA960E94A637FE01EB5B84
:10528000FF4F108365E778EBCE01895B9F4F0E944B
:10529000A637FE01EE5AFF4F10836CE778EBCE0184
:1052A0008C5A9F4F0E94A637FE01E15AFF4F108390
:1052B00063E878EBCE018F599F4F0E94A637FE011D
:1052C000E459FF4F10833296A8E0AA2EB12CA08299
:1052D000B182882483948D82CE010E947323FE01C3
:1052E000ED51FF4FDE01AE5BBF4F8C918083319655
:1052F0001D968C9180838B8D8A83C093D22AD09304
:10530000D32A8DE191E00E947C36EC016AE878EBCB
:105310000E94A82387EB96EB88839983FE01E750D0
:10532000FF4FC082D182E282F382DE01A350BF4FE1
:1053300088E1EEE5F5EB01900D928A95E1F7DE014B
:10534000AB5EBE4FE4EAF5EB01900D927A94E1F783
:1053500064EF77EBCE0106960E94A63780E4898B36
:1053600064E977EBCE0143960E94A6371E8F63E473
:1053700078EBCE0180960E94A63713E019A718A7F4
:105380008AA685E08BA761E978EBCE018D960E9415
:10539000A63788AE68E977EBCE01CA960E94A63799
:1053A000FE01ED5BFF4F80E380833197808332966F
:1053B0009082319600836CE977EBCE01895B9F4F39
:1053C0000E94A637FE01E05BFF4F88E4808331979F
:1053D0008083329690823196008360EA77EBCE012B
:1053E0008C5A9F4F0E94A637FE01E15AFF4F8BE077
:1053F000808368E978EBCE018F599F4F0E94A637D2
:10540000FE01E459FF4F10833296A082B182E65B21
:10541000FF4F8E0108501F4F1192E017F107E1F77F
:1054200081E08D83CE010E947323E4E3FAE224E657
:105430003AE28BEAE82E86EBF82E6BE776EB90E00B
:1054400080E04CE0842E9924939450E040E0D90110
:10545000A40FB51F1C924F5F5F4F4C305105B9F739
:10546000D701CD90DD907D0150E040E0889E500155
:10547000899EB00C1124D501AC59B54D5D014C1578
:105480005D055CF4DB01A40FB51FAC91AA0DBB2D2B
:10549000B11D9C924F5F5F4FF2CF90823F0141E080
:1054A00050E0D301BD903D016901C40ED51ED60167
:1054B000DC90DB0CD301DC924F5F5F4F4C30510529
:1054C00081F701963C96245F3F4F645F7F4F8430A5
:1054D000910509F0BACF8B8DF8018083C093D02A53
:1054E000D093D12ADF91CF911F910F91FF90EF9030
:1054F000DF90CF90BF90AF909F908F907F906F90F4
:105500000895CF93DF93CDB7DEB76397CDBFDEBFEE
:1055100088ED90E084BF9093610080E094E2A4EF76
:10552000B0E08093012890930228A0930328B093C1
:10553000042880910206866080930206809100060E
:10554000816080930006809102068F7C8093020622
:105550008091A0008F788093A000809102068061E6
:10556000809302061092E20581E08093E40583E0D7
:105570008093010A2FEF30E02093260A3093270A08
:1055800080E890E08093380A9093390A80933A0A31
:1055900090933B0A80933C0A90933D0A8BE0809362
:1055A000000A8091E50581608093E5058091E5051D
:1055B00082608093E50557E05093810A4FEF409356
:1055C0008C0A90E890938D0A85E08093800A50932E
:1055D000910A40939C0A90939D0A8093900A50935D
:1055E000A10A4093AC0A9093AD0A8093A00A80E090
:1055F00094E08093792990937A29809179299091E8
:105600007A29B9010E944E366093772970937829E0
:105610008091792990917A29E8EEF3E0BF010E9408
:105620004E3660936F2970937029809179299091FB
:105630007A29BF010E944E3680936D2990936E297E
:1056400020938C0A30938D0A8091850A8160809323
:10565000850A14E01093800A8091800A816080930B
:10566000800A7894E0919C2AF0919D2A30E020E015
:1056700040E06AE088E99AE20995CE01019628E0C7
:10568000DC011D922A95E9F70E94CD03E0919C2A46
:10569000F0919D2A30E020E040E06BE088E99AE25A
:1056A00009958091DA2A9091DB2A0E94A3038091C8
:1056B000D82A9091D92A0E94A3038091D62A90914A
:1056C000D72A0E94A3038091DE2A9091DF2A0E94AC
:1056D000A3038091DC2A9091DD2A0E94A30380918C
:1056E000D42A9091D52A0E94A3038091D22A909126
:1056F000D32A20E3FC0121A7ED5BFF4F10837A96AC
:10570000108228E4DC01D6962C933D9710837A967C
:1057100022E020830E94A3038091D02A9091D12A75
:105720000E94A30361E070E082E00E94920662E0C2
:1057300070E08CE00E94620762E070E08BE00E9403
:10574000620762E070E08AE00E94620762E070E057
:1057500081E10E94620762E070E085E10E946207D9
:1057600062E070E084E10E94620757E2E52E56EBAA
:10577000F52E6BE2A62E66EBB62E7FE2C72E76EBF9
:10578000D72EEBE26E2EE6EB7E2EF9E68F2EF9E2B7
:105790009F2EA8EE4A2EA3E05A2EBAEF2B2E312CC4
:1057A00080E390E00E947C368C01F7019081F2E06A
:1057B000EF0EF11CD5012C91B2E0AB0EB11CF6013D
:1057C0008081F2E0CF0ED11CE7E0D8011396EC9374
:1057D0001397F3E01496FC93149737E015963C93D7
:1057E000159716961C921697E1E01796EC9317976B
:1057F000F2E31896FC93189719964D925C921A97BB
:105800001B962D923C921C971D961D921D921D92E7
:105810001C92509759961C9259975A961C925A97D7
:105820005B961C925B975C961D921C925D975E96B0
:105830001D921C925F9790961D921C929197929642
:105840001D921C92939794961D921C9295979696F2
:105850001D921C92979798961D921C9299979A96D2
:105860001D921C929B979C961D921C929D979E96B2
:105870001D921C929F978C9311962C9311971296C0
:105880009C9362E070E00E94620762E070E0F801C1
:1058900081810E94620762E070E0D80112968C91CB
:1058A0000E946207F401019311934F016E147F046B
:1058B00009F076CF10927F29109280291092CE2A7B
:1058C0001092CF2AE0916929F0916A2986E39EE03F
:1058D000848F958F89E898E182A393A38DE598E062
:1058E00080A791A7E0916B29F0916C2984E590E164
:1058F000848F958F8BE290E182A393A38EE094E155
:1059000080A791A7E0910A2BF0910B2B80819181C8
:10591000DC01ED91FC910484F585E02D42E15AE72C
:1059200060E070E0099510920C2B10920E2B1092F3
:105930000D2B1092142B1092152B1092122B1092EB
:10594000132B8FEF9FEF8093162B9093172B809341
:10595000182B9093192B0E9451086093A22B7093DF
:10596000A32B8093A42B9093A52B10929F2B109286
:105970001C2B10921B2B10921D2B10921E2B109281
:10598000A02B1092A12B10921A2B86E790E2809305
:10599000FC2A9093FD2A83ED96E18093FE2A909352
:1059A000FF2A8CEB96E18093042B9093052B80E6E5
:1059B00098E08093E62A9093E72A8DE898E0809318
:1059C000E42A9093E52A84E090E18093EA2A909378
:1059D000EB2A8AEC98E18093EC2A9093ED2A88E3F5
:1059E00093E18093F22A9093F32A8CE099EB9F93B2
:1059F0008F9383E199EB9F938F938BE89CE29F9326
:105A00008F930E94AD374BE8E42E4CE2F42E0F90BA
:105A10000F900F900F900F900F9010E0F701619191
:105A20007F01812F0E94F70D1F5F1F33B9F760EDD3
:105A300077E080E090E00E942108109268290E949F
:105A4000891811E036E0232ED0900C2BF0E1FD15E3
:105A500008F47DC0E0910A2BF0910B2B808191819D
:105A6000DC01ED91FC910480F581E02D0995892BF5
:105A700009F46DC08091AF2B8E7F8093AF2BE091A6
:105A80000A2BF0910B2B80819181DC01ED91FC912F
:105A90000680F781E02D0995082F8D3F09F457C046
:105AA0008091142B9091152B009709F044C200931C
:105AB0000F2BF0900D2B8F2D0E9483170E949117B2
:105AC000882361F007FD0AC0F0920F2B0093102B82
:105AD000E1E0F0E0E093142BF093152B00910F2BF5
